:020000040800F2
:1080000000000120658300086D8300087783000865
:10801000018400080B84000861840008000000004F
:10802000000000000000000000000000B98400080B
:10803000C384000800000000CD840008659D00088E
:10804000F1840008F1840008F1840008F18400083C
:10805000F1840008F1840008B9A70008E5A700082A
:1080600011A800083DA8000869A80008F1840008CC
:10807000F1840008F1840008F1840008F18400080C
:10808000F1840008F1840008F18400080000000079
:1080900000000000000000000000000095A800089B
:1080A000F1840008F1840008F1840008F1840008DC
:1080B000F1840008F1840008F1840008F1840008CC
:1080C000F1840008F1840008F1840008F1840008BC
:1080D000F1840008F9990008F1840008000000000C
:1080E000F1840008F1840008F18400080000000019
:1080F000000000000000000000000000F184000803
:1081000000000000F1840008F1840008F1840008F8
:10811000000000000000000000000000000000005F
:10812000F1840008F1840008F1840008F18400085B
:10813000F1840008000000000000000000000000C2
:10814000000000000000000000000000F1840008B2
:10815000F1840008F1840008F1840008F18400082B
:10816000F1840008F1840008000000000000000015
:1081700000000000000000000000000000000000FF
:1081800000000000F1840008000000000000000072
:10819000F184000880B596B000AF01F057F9604B4C
:1081A000604A1A60604B5F4A1A60604B7B6524E04E
:1081B0007B6D1A1D7A651B683B647B6D1A1D7A65A1
:1081C0001B68FB637B6D1A1D7A651B68BB633B6C88
:1081D0007B63FB6B3B63BB6BFB623B6BBB6207E090
:1081E0007A6B131D7B63BB6A191DB96212681A6032
:1081F000FA6ABB6A9A42F3D800BF7B6D4C4A93423D
:10820000D6D3474B1B684B4A934205D1464B1B685C
:10821000494A934200D100E0FEE7484B414A1A60C8
:10822000474B404A1A60474B3B651AE03B6D1A1DAD
:108230003A651B68BB643B6D1A1D3A651B687B641D
:10824000BB6C7B627B6C3B627B6AFB6104E0FB691D
:108250001A1DFA6100221A603A6AFB699A42F6D83E
:1082600000BF3B6D384A9342E0D3344B1B68002B70
:1082700004D1334B1B68002B00D100E0FEE70CF06B
:1082800029FA3A1D07F108031146184601F01EF8B5
:108290002E4A2F4BD31A9B103B610023FB6007E053
:1082A0002B4AFB6852F823309847FB680133FB6088
:1082B0003A69FB689A42F3DC264A274BD31A9B1093
:1082C0003B610023FB6007E0234AFB6852F8233040
:1082D0009847FB680133FB603A69FB689A42F3DC1C
:1082E00000BFBB687A68114618460CF0C9F9F864FB
:1082F0001A4A1B4BD31A9B10BB61BB697B6108E018
:108300007B69013B164A52F8233098477B69013B51
:108310007B617B69002BF3DC00BFF86C00F092FFFF
:1083200000000020BABADECA74000020FC840008F5
:10833000148500087856341232547698780000205C
:10834000380E0020148500082485000824850008C4
:108350002485000824850008248500082485000859
:108360002485000880B500AFFFF714FF80B400AF8C
:1083700000BE00BFFDE71EF0040F0CBFEFF3088046
:10838000EFF309807146574A104700BF80B588B0A7
:1083900002AF78603960184B5B6B7B61164B9B6B4F
:1083A0003B61154B9B6AFB60134B1B6B03F0020395
:1083B000002B10D0104BDB6A002B0CDA4BF6AB61B4
:1083C000786801F0EFF80346002B04D00A4B4FF019
:1083D0000042DA620DE0094800F09AFF3B68009322
:1083E0003B697A69F968786801F046F800BE00BF19
:1083F000FDE71837BD4680BD00ED00E0905601084E
:1084000080B400AF00BE00BFFDE71EF0040F0CBF3C
:10841000EFF30880EFF309807146334A104700BF3D
:1084200080B588B002AF786039600B4B5B6B7B61C5
:10843000094B9B6B3B61084B9B6AFB60074800F054
:1084400067FF3B6800933B697A69F968786801F0D7
:1084500013F800BE00BFFDE700ED00E0A0560108E4
:108460001EF0040F0CBFEFF30880EFF30980714694
:108470001E4A104700BF80B588B002AF78603960EF
:108480000B4B5B6B7B610A4B9B6B3B61084B9B6AA5
:10849000FB60084800F03CFF3B6800933B697A6949
:1084A000F968786800F0E8FF00BE00BFFDE700BF94
:1084B00000ED00E0AC56010880B400AF00BE00BF84
:1084C000FDE780B400AF00BE00BFFDE780B400AFA1
:1084D00000BE00BFFDE780B400AF00BFBD465DF841
:1084E000047B70478D83000821840008778400088E
:0A84F00080B400AF00BE00BFFDE73E
:1084FC006C61010800000020780000206C6101080C
:10850C000000001000000010780000203C0E00203D
:08851C00000000100000001037
:1085300080B500AF0E4B1B680D4A43F40073136007
:108540000B4B1B680A4A43F480631360084B1B689B
:10855000074A43F480731360032000F0E5F80F200E
:1085600000F008F80CF01EF90023184680BD00BF8B
:10857000003C024080B582B000AF7860094B1B68B8
:10858000094AA2FB03239B09184600F019F90022AF
:1085900079684FF0FF3000F0E7F8002318460837FD
:1085A000BD4680BD0C000020D34D621080B400AFEA
:1085B000034B1B681846BD465DF8047B704700BF3F
:1085C0007C00002080B485B000AF78607B6803F049
:1085D0000703FB600C4BDB68BB60BA684FF6FF0318
:1085E0001340BB60FB681A02BB68134343F0BF63D0
:1085F00043F40033BB60044ABB68D36000BF143748
:10860000BD465DF8047B704700ED00E080B400AF2C
:10861000044BDB681B0A03F007031846BD465DF8F0
:10862000047B704700ED00E080B483B000AF0346E8
:108630003960FB7197F90730002B0BDA3B68DAB22F
:108640000C49FB7903F00F03043B1201D2B20B4437
:108650001A7609E03B68DAB2074997F90730120148
:10866000D2B20B4483F8002300BF0C37BD465DF83F
:10867000047B704700ED00E000E100E080B489B0C9
:1086800000AFF860B9607A60FB6803F00703FB6134
:10869000FB69C3F10703042B28BF0423BB61FB69FB
:1086A0000433062B02D9FB69033B00E000237B6106
:1086B0004FF0FF32BB6902FA03F3DA43BB681A409A
:1086C0007B699A404FF0FF317B6901FA03F3D9438C
:1086D0007B680B40134318462437BD465DF8047B86
:1086E0007047000080B582B000AF78607B68013BC6
:1086F000B3F1807F01D301230FE00A4A7B68013B7D
:1087000053600F214FF0FF30FFF78EFF054B002223
:108710009A60044B07221A60002318460837BD46AA
:1087200080BD00BF10E000E080B582B000AF78608F
:108730007B68072B0FD07B68062B0CD07B68052B42
:1087400009D07B68042B06D07B68032B03D0A421BF
:10875000044800F0CFFD7868FFF734FF00BF08370A
:10876000BD4680BD4C54010880B586B000AF0346BD
:10877000B9607A60FB7300237B617B680F2B03D9A0
:10878000BC210E4800F0B6FDBB680F2B03D9BD21FC
:108790000A4800F0AFFDFFF739FF78617A68B968E1
:1087A0007869FFF76BFF024697F90F3011461846BC
:1087B000FFF73AFF00BF1837BD4680BD4C54010893
:1087C00080B582B000AF78607868FFF78BFF034612
:1087D00018460837BD4680BD80B582B000AF7860CE
:1087E0007B68042B07D07B68002B04D040F2B311C8
:1087F0000B4800F07FFD7B68042B06D1094B1B68FA
:10880000084A43F00403136005E0064B1B68054A61
:1088100023F00403136000BF0837BD4680BD00BFCE
:108820004C54010810E000E080B58EB000AF7860D5
:1088300000237B637B681B680F2B03D9F5219A48C3
:1088400000F058FD7B681B6803F00103002B60D02B
:108850007B685B68002B0BD07B685B68012B07D0C3
:108860007B685B68052B03D0FA218F4800F042FD3E
:108870008E4B9B6803F00C03042B0CD08B4B9B6836
:1088800003F00C03082B12D1884B5B6803F48003C0
:10889000B3F5800F0BD1854B1B6803F40033002B1D
:1088A00036D07B685B68002B32D1012377E27B688E
:1088B0005A687F4BD2B21A707B685B68002B13D06A
:1088C000FFF774FE786308E0FFF770FE02467B6BEB
:1088D000D31A642B01D9032361E2744B1B6803F4A0
:1088E0000033002BF0D014E0FFF760FE786308E05F
:1088F000FFF75CFE02467B6BD31A642B01D903237E
:108900004DE26A4B1B6803F40033002BF0D100E00A
:1089100000BF7B681B6803F00203002B00F08E8011
:108920007B68DB68002B08D07B68DB68012B04D0F8
:108930004FF496715C4800F0DDFC7B681B691F2BCF
:1089400004D940F22D11584800F0D4FC574B9B68D5
:1089500003F00C03002B0BD0544B9B6803F00C036B
:10896000082B26D1514B5B6803F48003002B20D1E8
:108970004E4B1B6803F00203002B05D07B68DB68BD
:10898000012B01D001230AE2484B1B6823F0F802B7
:108990007B681969F8233B633B6B93FAA3F3FB6293
:1089A000FB6AB3FA83F301FA03F3404913430B6004
:1089B00044E07B68DB68002B2AD03E4B01221A6022
:1089C000FFF7F4FD786308E0FFF7F0FD02467B6BEC
:1089D000D31A022B01D90323E1E1344B1B6803F0C6
:1089E0000203002BF0D0314B1B6823F0F8027B68A8
:1089F0001969F823BB62BB6A93FAA3F37B627B6AB3
:108A0000B3FA83F301FA03F3284913430B6015E02B
:108A1000284B00221A60FFF7C9FD786308E0FFF7D2
:108A2000C5FD02467B6BD31A022B01D90323B6E1A5
:108A30001E4B1B6803F00203002BF0D17B681B6800
:108A400003F00803002B48D07B685B69002B08D03B
:108A50007B685B69012B04D040F26D11124800F075
:108A600049FC7B685B69002B16D0134B01221A600E
:108A7000FFF79CFD786308E0FFF798FD02467B6BEB
:108A8000D31A022B01D9032389E1084B5B6F03F052
:108A90000203002BF0D020E0074B00221A60FFF702
:108AA00085FD786313E000BF905401080038024050
:108AB0000238024000004742800E4742FFF776FD31
:108AC00002467B6BD31A022B01D9032367E19E4B2D
:108AD0005B6F03F00203002BF0D17B681B6803F08F
:108AE0000403002B6BD07B689B68002B0CD07B6849
:108AF0009B68012B08D07B689B68052B04D040F253
:108B00009711924800F0F6FB0023BB608E4B1B6C64
:108B10008D4A43F0805313648B4B1B6C03F08053DE
:108B2000BB60BB688A4B1B68894A43F4807313603F
:108B3000FFF73CFD786308E0FFF738FD02467B6BEA
:108B4000D31A022B01D9032329E1814B1B6803F4BB
:108B50008073002BF0D07B689A687E4BD2B21A707B
:108B60007B689B68002B15D0FFF720FD78630AE037
:108B7000FFF71CFD02467B6BD31A41F28832934209
:108B800001D903230BE1704B1B6F03F00203002B91
:108B9000EED014E0FFF70AFD78630AE0FFF706FD68
:108BA00002467B6BD31A41F28832934201D90323E8
:108BB000F5E0654B1B6F03F00203002BEED17B68E1
:108BC0009B69002B0CD07B689B69012B08D07B68CC
:108BD0009B69022B04D04FF4E6715C4800F08AFBDD
:108BE0007B689B69002B00F0D980574B9B6803F092
:108BF0000C03082B00F0D0807B689B69022B40F0AF
:108C0000B4807B68DB69002B09D07B68DB69B3F536
:108C1000800F04D040F2D5114C4800F06BFB7B680C
:108C20001B6A3F2B04D94FF4EB71484800F062FBFC
:108C30007B685B6A312B04D97B685B6AB3F5D87FAC
:108C400004D940F2D711414800F054FB7B689B6A7D
:108C5000022B10D07B689B6A042B0CD07B689B6A2C
:108C6000062B08D07B689B6A082B04D04FF4EC716C
:108C7000364800F03FFB7B68DB6A032B03D97B6837
:108C8000DB6A0F2B04D940F2D911304800F032FBD7
:108C9000314B00221A60FFF789FC786308E0FFF788
:108CA00085FC02467B6BD31A022B01D9032376E0A5
:108CB000254B1B6803F00073002BF0D17B68DA6949
:108CC0007B681B6A1A437B68596A47F6C0733B612D
:108CD0003B6993FAA3F3FB60FB68B3FA83F301FAF1
:108CE00003F31A437B689B6A5B08591E4FF44033B9
:108CF000BB61BB6993FAA3F37B617B69B3FA83F32E
:108D000001FA03F31A437B68D96A4FF070633B6240
:108D10003B6A93FAA3F3FB61FB69B3FA83F301FAAD
:108D200003F3094913434B600B4B01221A60FFF711
:108D30003DFC786312E0FFF739FC02467B6BD31AE7
:108D4000022B0BD903232AE000380240905401087B
:108D5000007000407038024060004742124B1B68B0
:108D600003F00073002BE6D018E0104B00221A60CD
:108D7000FFF71CFC786308E0FFF718FC02467B6BEA
:108D8000D31A022B01D9032309E0074B1B6803F018
:108D90000073002BF0D101E0012300E0002318460E
:108DA0003837BD4680BD00BF0038024060004742F2
:108DB00080B586B000AF7860396000237B617B6846
:108DC0001B68002B03D07B681B680F2B04D940F273
:108DD0003721914800F08EFA3B68002B19D03B6890
:108DE000012B16D03B68022B13D03B68032B10D00D
:108DF0003B68042B0DD03B68052B0AD03B68062B43
:108E000007D03B68072B04D04FF40E71824800F066
:108E100071FA824B1B6803F00F033A689A420CD92F
:108E20007E4B3A68D2B21A707C4B1B6803F00F037A
:108E30003A689A4201D0012369E17B681B6803F01C
:108E40000203002B31D07B689B68002B24D07B6809
:108E50009B68802B20D07B689B68902B1CD07B6804
:108E60009B68A02B18D07B689B68B02B14D07B68C4
:108E70009B68C02B10D07B689B68D02B0CD07B6884
:108E80009B68E02B08D07B689B68F02B04D040F2F5
:108E90004F21614800F02EFA614B9B6823F0F002ED
:108EA0007B689B685E4913438B607B681B6803F09B
:108EB0000103002B00F09B807B685B68002B10D0C7
:108EC0007B685B68012B0CD07B685B68022B08D049
:108ED0007B685B68032B04D040F256214E4800F0BB
:108EE00009FA7B685B68012B07D14D4B1B6803F4C3
:108EF0000033002B19D1012309E17B685B68022B49
:108F000003D07B685B68032B07D1454B1B6803F0DC
:108F10000073002B09D10123F9E0414B1B6803F0DA
:108F20000203002B01D10123F1E03D4B9B6823F0AC
:108F300003027B685B683A4913438B60FFF736FB9B
:108F400078617B685B68012B12D10AE0FFF72EFB8A
:108F500002467B69D31A41F28832934201D9032336
:108F6000D5E02F4B9B6803F00C03042BEED13EE0C1
:108F70007B685B68022B12D10AE0FFF717FB024601
:108F80007B69D31A41F28832934201D90323BEE0B0
:108F9000234B9B6803F00C03082BEED127E07B6882
:108FA0005B68032B1DD10AE0FFF700FB02467B69DB
:108FB000D31A41F28832934201D90323A7E0184B18
:108FC0009B6803F00C030C2BEED110E0FFF7EEFAD8
:108FD00002467B69D31A41F28832934201D90323B6
:108FE00095E00F4B9B6803F00C03002BEED10B4B6D
:108FF0001B6803F00F033A689A4213D2074B3A6892
:10900000D2B21A70054B1B6803F00F033A689A42FC
:1090100008D001237BE000BF90540108003C0240CF
:10902000003802407B681B6803F00403002B25D046
:109030007B68DB68002B18D07B68DB68B3F5805F4A
:1090400013D07B68DB68B3F5A05F0ED07B68DB686C
:10905000B3F5C05F09D07B68DB68B3F5E05F04D08F
:109060004FF42D712C4800F045F92C4B9B6823F4EC
:10907000E0527B68DB68294913438B607B681B687F
:1090800003F00803002B26D07B681B69002B18D047
:109090007B681B69B3F5805F13D07B681B69B3F5F0
:1090A000A05F0ED07B681B69B3F5C05F09D07B68F9
:1090B0001B69B3F5E05F04D040F2BB21164800F015
:1090C00019F9164B9B6823F460427B681B69DB002F
:1090D000124913438B6000F027F801460F4B9B6841
:1090E00003F0F002F0233B613B6993FAA3F3FB60CA
:1090F000FB68B3FA83F322FA03F3094AD35C21FA3B
:1091000003F3084A13600F20FFF734FA00231846D0
:109110001837BD4680BD00BF90540108003802409A
:10912000805401080C00002080B48BB000AF0023F5
:10913000FB6100237B620023BB6100233B62384B51
:109140009B6803F00C03082B0CD0082B5DD8002B78
:1091500002D0042B03D058E0324B3B6258E0324B34
:109160003B6255E02E4B5B6803F03F03FB612C4BE9
:109170005B6803F48003002B17D02B4AFB69B2FB1A
:10918000F3F2274B596847F6C0730B4047F6C0719E
:109190007961796991FAA1F139613969B1FA81F19D
:1091A000CB4002FB03F37B6216E01E4AFB69B2FB75
:1091B000F3F21B4B596847F6C0730B4047F6C0717A
:1091C000F960F96891FAA1F1B960B968B1FA81F171
:1091D000CB4002FB03F37B62114B5B6803F440322C
:1091E0004FF440337B607B6893FAA3F33B603B68AA
:1091F000B3FA83F322FA03F301335B00BB617A6AAB
:10920000BB69B2FBF3F33B6202E0064B3B6200BF7B
:109210003B6A18462C37BD465DF8047B704700BF9B
:10922000003802400024F40040787D0180B400AF93
:10923000034B1B681846BD465DF8047B704700BFB2
:109240000C00002080B483B000AF786000BFFDE761
:1092500080B500AF024800F07DF80120FFF7F2FF73
:10926000C054010880B584B000AF7860144B1B680F
:10927000002B02D1124B134A1A60114B1B68FB6082
:109280007B68033323F003037B600D4B1A687B6814
:1092900013440D4A934207D90BF020FC03460C22DD
:1092A0001A604FF0FF3306E0054B1A687B681344E1
:1092B000034A1360FB6818461037BD4680BD00BFE7
:1092C000800000203C0E002000FC002080B483B011
:1092D00000AF786039607B6801221A603B68044AFD
:1092E0001A6000BF0C37BD465DF8047B704700BFB5
:1092F0000400002080B582B000AF786039603A6821
:109300007968024800F004F8FFF7A2FF1855010839
:109310000FB480B582B000AF07F114033B603B6827
:109320003A6980210A480BF0BBFB78607B68002B10
:1093300005DD7B681946064800F024F878607B68F4
:1093400018460837BD46BDE8804004B0704700BFEE
:109350008C00002080B582B000AF786078680BF098
:10936000C3FB03461946786800F00CF80121044855
:1093700000F008F8034618460837BD4680BD00BF18
:109380004455010880B582B000AF78603960396813
:10939000786800F005F8034618460837BD4680BDDA
:1093A000B0B590B000AF786039607A683B6813441C
:1093B00093F90030002B0BD104233B637B68FB62E5
:1093C0003C6BFD6A20462946ABBE0446BC6237E0D2
:1093D0003B68FB6331E0FB6B102B28BF10237B63E2
:1093E0000023BB630EE07B6893F9001007F10C02C9
:1093F000BB6B13440A461A70BB6B0133BB637B68BB
:1094000001337B60BA6B7B6B9A42ECD307F10C02A1
:10941000BB6B134400221A7004237B6207F10C0318
:109420003B627C6A3D6A20462946ABBE0446FC612D
:1094300000BFFA6B7B6BD31AFB63FB6B002BCAD1AB
:109440003B6818464037BD46B0BD000080B500AF50
:1094500000F0D2F8064B074A9A60054BD3F88830E3
:10946000034A43F47003C2F8883000BF80BD00BFD8
:1094700000ED00E00080000880B584B000AFF86027
:10948000B9607A603B603448FFF742FFFB681B68B5
:1094900019463248FFF73CFFFB685B6819463048C5
:1094A000FFF736FFFB689B6819462E48FFF730FF31
:1094B000FB68DB6819462C48FFF72AFFFB681B692D
:1094C00019462A48FFF724FFFB685B6919462848BC
:1094D000FFF71EFFFB689B6919462648FFF718FF38
:1094E000FB68DB6919462448FFF712FF2348FFF7A2
:1094F0000FFFB9682248FFF70BFF224BDB6A1946C2
:109500002148FFF705FF1F4B1B6B19461F48FFF74C
:10951000FFFE1C4BDB6B19461D48FFF7F9FEBB68CD
:1095200003F08003002B03D079681A48FFF7F0FEA0
:10953000BB6803F40043002B03D039681648FFF7DB
:10954000E7FE1648FFF7E4FEB9691548FFF7E0FEAD
:1095500000BF1037BD4680BD745501088455010811
:1095600094550108A4550108B4550108C4550108D3
:10957000D4550108E4550108F455010804560108C2
:109580001056010800ED00E0205601083056010891
:1095900040560108505601086056010870560108EF
:1095A0007856010880B485B000AF78600B467B80A8
:1095B0007B689B69FB60FB681B887A889A4214D1A0
:1095C0007B681B68BB60BB68032B04D0BB68042BA3
:1095D00003D000230AE000BF00E000BF7B689B6966
:1095E0009A1C7B689A61012300E000231846143717
:1095F000BD465DF8047B704780B400AF164BD3F8CE
:109600008830154A43F47003C2F88830134B1B6846
:10961000124A43F001031360104B00229A600F4B73
:109620001B680E4A23F0847323F4803313600B4BC2
:109630000B4A5A60094B1B68084A23F480231360C5
:10964000064B0022DA60044B4FF000629A6000BFC4
:10965000BD465DF8047B704700ED00E00038024035
:109660001030002480B487B000AF00233B6100239A
:109670007B610223FB600023BB6002237B60344BD1
:109680009B6803F00C033B613B69082B11D03B69DD
:10969000082B44D83B69002B03D03B69042B04D032
:1096A0003DE02C4B2C4A1A603DE02A4B2B4A1A60B5
:1096B00039E0274B5B689B0D03F00103BB60244B33
:1096C0005B6803F03F037B60BB68002B0CD0234A30
:1096D0007B68B2FBF3F31E4A52689209C2F3080298
:1096E00002FB03F37B610BE01B4A7B68B2FBF3F3E5
:1096F000174A52689209C2F3080202FB03F37B6126
:10970000134B5B681B0C03F0030301335B00FB602E
:109710007A69FB68B2FBF3F30E4A136003E00D4B6A
:109720000D4A1A6000BF0A4B9B681B0903F00F0328
:109730000B4AD35C3B61074B1A683B6922FA03F37F
:10974000044A136000BF1C37BD465DF8047B7047B8
:10975000003802400C0000200024F40040787D0115
:10976000BC56010880B483B000AF78607B68002BE2
:1097700007D0144B1B889AB2134B1B889BB29A429A
:1097800001D1002317E00F4B1B889BB21A460F4BE9
:109790009B5CDAB27B681A700A4B1B889BB2013360
:1097A0005A42C3F30903C2F3090258BF53429AB2A3
:1097B000044B1A80012318460C37BD465DF8047B24
:1097C000704700BF0C0900200E0900200C05002086
:1097D00080B400AF0B4B00221A700B4B00221A70A2
:1097E0000A4B00221A700A4B00221A80094B0022F1
:1097F0001A80094B00221A7000BFBD465DF8047B39
:10980000704700BF190900201A0900201B09002019
:109810000C0900200E0900200C01002080B500AFCB
:109820001B4BDB681A4A23F40043D360184BDB68F8
:10983000174A23F48053D360154BDB68144A23F492
:109840008063D360124BD9229A60114B1B69104A76
:1098500023F4805313610E4B1B690D4A23F400530C
:1098600013610B4BDB680A4A43F00803D360084BD3
:10987000DB68074A43F00403D360054BDB68044A06
:1098800043F40053D36000F085F800BF80BD00BFF3
:109890000010014080B582B000AF0346FB71FB7938
:1098A000184600F005F800BF0837BD4680BD00002F
:1098B00080B485B000AF0346FB711C4BFB6002E037
:1098C000FB68013BFB601A4B1B6803F08003002B15
:1098D00002D1FB68002BF3D1FB68002B01D10023E0
:1098E0001DE0134AFB795360104BFB6002E0FB68FC
:1098F000013BFB600E4B1B6803F04003002B02D1C1
:10990000FB68002BF3D1FB68002B01D1002306E09C
:10991000074B1B68064A23F04003136001231846D7
:109920001437BD465DF8047B704700BF40420F000E
:109930000010014080B400AF054BDB68044A23F0FF
:109940008003D36000BFBD465DF8047B704700BF55
:109950000010014080B400AF054BDB68044A43F0BF
:109960004003D36000BFBD465DF8047B704700BF75
:109970000010014080B400AF054BDB68044A23F0BF
:109980004003D36000BFBD465DF8047B704700BF55
:109990000010014080B400AF054BDB68044A43F07F
:1099A0002003D36000BFBD465DF8047B704700BF55
:1099B0000010014080B584B000AF78607B68002B58
:1099C00016D07B6893F90030FB730023BB600CE07A
:1099D000FB7B1846FFF75EFFBB680133BB60BB68CB
:1099E0007A68134493F90030FB73FB7B002BEFD1B3
:1099F00000BF1037BD4680BD80B582B000AF654B5B
:109A00001B6803F08003002B2DD0624BDB6803F052
:109A10008003002B27D0604B1B68604A12681344F8
:109A20001B78DBB2002B14D05C4B1B6840F2FE327B
:109A300093420EDC584B1B68584A126813441B783B
:109A4000DAB2544B5A60554B1B680133534A1360CA
:109A500009E0FFF76FFFFFF77DFF504B00221A6010
:109A60004F4B00221A704B4B1B6803F04003002B36
:109A70000DD0484BDB6803F04003002B07D0454B6B
:109A80001B68444A23F040031360FFF773FF414B08
:109A90001B6803F02003002B78D03E4BDB6803F0FB
:109AA0002003002B72D03B4B5B68FB713D4B1B8846
:109AB0009BB201335A42C3F30903C2F3090258BFF0
:109AC0005342BB80384B1B889BB2BA889A4209D05C
:109AD000344B1B889BB21946344AFB795354314AA4
:109AE000BB881380FB793E2B0FD1314B3E221A707D
:109AF0002F4B00225A702F4B00221A702E4B01223E
:109B00001A702E4B00221A7040E0FB790A2B08D104
:109B10002A4B1B78DBB2002B03D0284B00221A7093
:109B200034E0FB790D2B10D1224B1B78DBB21A46A7
:109B30001F4B002199541F4B00221A701E4B01220B
:109B40001A701E4B01221A7020E0FB790A2B0DD1EE
:109B5000184B1B78DBB21A46154B00219954154B54
:109B600000221A70144B01221A700FE0114B1B785F
:109B7000124B00221A700F4B1B78DBB25A1CD1B269
:109B80000C4A117019460A4AFB79535400BF083732
:109B9000BD4680BD001001401009002014090020BE
:109BA000180900200E0900200C0900200C050020D7
:109BB0000C0100201A090020190900201B090020AF
:109BC00080B483B000AF78601A4B1B68194A23F049
:109BD000010313607B681B78012B06D1154B1B68B2
:109BE000144A43F00203136009E07B681B78002BE2
:109BF00005D1104B1B680F4A23F0020313607B68EA
:109C00005B78012B06D10B4B1B680A4A43F0040317
:109C1000136009E07B685B78022B05D1054B1B685C
:109C2000044A23F00403136000BF0C37BD465DF8FF
:109C3000047B704710E000E080B483B000AF786030
:109C4000084A7B685360074B00229A60054B1B68EB
:109C5000044A43F00103136000BF0C37BD465DF8B2
:109C6000047B704710E000E080B400AF064B1B6837
:109C7000054A23F001031360034B00229A6000BFE2
:109C8000BD465DF8047B704710E000E00000000076
:109C900080B584B000AF87ED000B16A3D3E9002395
:109CA000D7E900010AF086FD02460B461046194628
:109CB0000AF0AAFE0346FB600D4B00229A60FB6887
:109CC000002B10D0FB686FF07F4293420BD2F868F4
:109CD000FFF7B2FF00BF064B1B6803F48033002B75
:109CE000F9D0FFF7C1FF00BF1037BD4680BD00BFF0
:109CF00010E000E000000000006AA84080B584B0D9
:109D000000AF87ED000B4FF00002144BD7E90001C4
:109D10000AF050FD02460B46104619460AF074FE42
:109D20000346FB600E4B00229A60FB68002B10D0AC
:109D3000FB686FF07F4293420BD2F868FFF77CFF1D
:109D400000BF074B1B6803F48033002BF9D0FFF7EB
:109D50008BFF00BF1037BD4680BD00BF000009402B
:109D600010E000E080B500AF074B1B68002B02D06D
:109D7000054B1B689847054B1B78012B01D1FFF75A
:109D800073FF00BF80BD00BF1C0900202009002018
:109D900080B400AF1A4B1B68194A43F40073136078
:109DA000174B1B68164A43F480731360144B1B68EF
:109DB000134A23F400631360114B1B68104A23F00D
:109DC000800313600E4B1B680D4A43F004031360BD
:109DD0000B4B1B680A4A23F002031360084B1B68F5
:109DE000074A23F001031360054B1B68044A43F044
:109DF0004003136000BFBD465DF8047B704700BFA1
:109E00000030014080B485B000AF0346FB711A4BAF
:109E1000FB6002E0FB68013BFB60184B9B6803F0B2
:109E20000203002B02D1FB68002BF3D1FB68002B4F
:109E300001D1002319E0114AFB79D3600E4BFB607E
:109E400002E0FB68013BFB600C4B9B6803F00103E5
:109E5000002B02D1FB68002BF3D1FB68002B01D152
:109E6000002302E0054BDB68DBB218461437BD4621
:109E70005DF8047B704700BF40420F000030014096
:109E800080B400AF114B1B68104A23F48023136089
:109E90000E4B1B680D4A43F48033136000BF0B4B1D
:109EA0001B6803F40033002BF9D0084B9B68074A6A
:109EB00023F002039360054B9B68044A43F00103BF
:109EC000936000BFBD465DF8047B704700380240D8
:109ED00080B483B000AF03460A46FB711346BB71E2
:109EE000FB79032B32D801A252F823F0FD9E000823
:109EF000119F0008259F0008399F0008164B1A6B18
:109F0000BB79012101FA03F3134913430B631DE0ED
:109F1000114B5A6BBB79012101FA03F30E4913432C
:109F20004B6313E00C4B1A6CBB79012101FA03F36C
:109F3000094913430B6409E0074B5A6CBB790121B3
:109F400001FA03F3044913434B6400BF00BF0C370D
:109F5000BD465DF8047B70470038024080B483B092
:109F600000AF0346FB710B4AFB795B09D8B203468D
:109F700052F82320FB7903F01F03012101FA03F3B8
:109F80000449134341F8203000BF0C37BD465DF84B
:109F9000047B704700E100E080B483B000AF03466B
:109FA000FB710B46BB7113467B71FB79002B08D10B
:109FB000BB790D2B60D0BB790E2B5DD0BB790F2BFD
:109FC0005AD0FB79012B05D1BB79032B56D0BB7935
:109FD000042B53D0FB79022B36D0022B4FDC002B05
:109FE00002D0012B18D04AE0284B1B68BA795200E6
:109FF000032101FA02F2D2431146244A0B401360B6
:10A00000224B1B687979BA79520001FA02F21146A3
:10A010001E4A0B43136032E01D4B1B68BA79520095
:10A02000032101FA02F2D2431146194A0B40136090
:10A03000174B1B687979BA79520001FA02F211467E
:10A04000134A0B4313601AE0124B1B68BA79520093
:10A05000032101FA02F2D24311460E4A0B4013606B
:10A060000C4B1B687979BA79520001FA02F2114659
:10A07000084A0B43136002E000BF00E000BF00BFCE
:10A080000C37BD465DF8047B704700BF00000240FE
:10A09000000402400008024080B483B000AF0346D1
:10A0A000FB710B46BB7113467B71FB79002B08D10A
:10A0B000BB790D2B67D0BB790E2B64D0BB790F2BEE
:10A0C00061D0FB79012B05D1BB79032B5DD0BB7926
:10A0D000042B5AD07B79002B2AD1FB79022B1CD080
:10A0E000022B53DC002B02D0012B0BD04EE02A4B6D
:10A0F0005A68BB79012101FA03F3DB432649134077
:10A100004B6043E0254B5A68BB79012101FA03F308
:10A11000DB43224913404B6038E0214B5A68BB793E
:10A12000012101FA03F3DB431D4913404B602DE08D
:10A130007B79012B2AD1FB79022B1AD0022B25DC4B
:10A14000002B02D0012B0AD020E0134B5A68BB79B8
:10A15000012101FA03F3104913434B6016E00F4B42
:10A160005A68BB79012101FA03F30C4913434B6090
:10A170000CE00B4B5A68BB79012101FA03F3084943
:10A1800013434B6002E000BF00E000BF00BF0C378C
:10A19000BD465DF8047B70470000024000040240A9
:10A1A0000008024080B483B000AF0346FB710B4649
:10A1B000BB7113467B71FB79002B08D1BB790D2B4A
:10A1C00060D0BB790E2B5DD0BB790F2B5AD0FB79B9
:10A1D000012B05D1BB79032B56D0BB79042B53D06F
:10A1E000FB79022B36D0022B4FDC002B02D0012B47
:10A1F00018D04AE0284B9B68BA795200032101FA33
:10A2000002F2D2431146244A0B409360224B9B68D2
:10A210007979BA79520001FA02F211461E4A0B43CB
:10A22000936032E01D4B9B68BA795200032101FA1A
:10A2300002F2D2431146194A0B409360174B9B68B8
:10A240007979BA79520001FA02F21146134A0B43A6
:10A2500093601AE0124B9B68BA795200032101FA0D
:10A2600002F2D24311460E4A0B4093600C4B9B689E
:10A270007979BA79520001FA02F21146084A0B4381
:10A28000936002E000BF00E000BF00BF0C37BD4696
:10A290005DF8047B704700BF0000024000040240EC
:10A2A0000008024080B483B000AF0346FB710B4648
:10A2B000BB7113467B71FB79002B08D1BB790D2B49
:10A2C00060D0BB790E2B5DD0BB790F2B5AD0FB79B8
:10A2D000012B05D1BB79032B56D0BB79042B53D06E
:10A2E000FB79022B36D0022B4FDC002B02D0012B46
:10A2F00018D04AE0284BDB68BA795200032101FAF2
:10A3000002F2D2431146244A0B40D360224BDB6851
:10A310007979BA79520001FA02F211461E4A0B43CA
:10A32000D36032E01D4BDB68BA795200032101FA99
:10A3300002F2D2431146194A0B40D360174BDB6837
:10A340007979BA79520001FA02F21146134A0B43A5
:10A35000D3601AE0124BDB68BA795200032101FA8C
:10A3600002F2D24311460E4A0B40D3600C4BDB681D
:10A370007979BA79520001FA02F21146084A0B4380
:10A38000D36002E000BF00E000BF00BF0C37BD4655
:10A390005DF8047B704700BF0000024000040240EB
:10A3A0000008024080B483B000AF0346FB710B4647
:10A3B000BB7113467B71FB79002B08D1BB790D2B48
:10A3C00067D0BB790E2B64D0BB790F2B61D0FB79A2
:10A3D000012B05D1BB79032B5DD0BB79042B5AD05F
:10A3E0007B79002B2AD1FB79022B1CD0022B53DC6A
:10A3F000002B02D0012B0BD04EE02A4B5A69BB79BF
:10A40000012101FA03F3DB43264913404B6143E08A
:10A41000254B5A69BB79012101FA03F3DB43224939
:10A4200013404B6138E0214B5A69BB79012101FA95
:10A4300003F3DB431D4913404B612DE07B79012B76
:10A440002AD1FB79022B1AD0022B25DC002B02D05B
:10A45000012B0AD020E0134B5A69BB79012101FA84
:10A4600003F3104913434B6116E00F4B5A69BB7954
:10A47000012101FA03F30C4913434B610CE00B4B30
:10A480005A69BB79012101FA03F3084913434B616F
:10A4900002E000BF00E000BF00BF0C37BD465DF822
:10A4A000047B7047000002400004024000080240A4
:10A4B00080B483B000AF0346FB710B46BB711346FB
:10A4C0007B71BB79072B52D8FB79022B37D0022B3B
:10A4D00000F3AB80002B02D0012B18D0A5E0564B27
:10A4E0001B6ABA7992000F2101FA02F2D243114697
:10A4F000514A0B401362504B1B6A7979BA7992002A
:10A5000001FA02F211464C4A0B4313628DE04B4BA9
:10A510001B6ABA7992000F2101FA02F2D243114666
:10A52000464A0B401362454B1B6A7979BA7992000F
:10A5300001FA02F21146414A0B43136275E0404BA7
:10A540001B6ABA7992000F2101FA02F2D243114636
:10A550003B4A0B4013623A4B1B6A7979BA799200F5
:10A5600001FA02F21146364A0B4313625DE0BB79F1
:10A57000072B5AD9BB790F2B57D8FB79022B3AD02E
:10A58000022B52DC002B02D0012B1AD04DE02A4BBB
:10A590005B6ABA79083A92000F2101FA02F2D243BB
:10A5A0001146254A0B405362234B5B6A7979BA798D
:10A5B000083A920001FA02F211461F4A0B43536215
:10A5C00033E01E4B5B6ABA79083A92000F2101FA18
:10A5D00002F2D2431146194A0B405362174B5B6A91
:10A5E0007979BA79083A920001FA02F21146134ACF
:10A5F0000B43536219E0124B5B6ABA79083A920036
:10A600000F2101FA02F2D24311460D4A0B40536268
:10A610000B4B5B6A7979BA79083A920001FA02F237
:10A620001146074A0B43536200BF00BF0C37BD46BB
:10A630005DF8047B704700BF000002400004024048
:10A640000008024080B483B000AF0346FB710B46A4
:10A65000BB7113467B71FB79002B08D1BB790D2BA5
:10A660004FD0BB790E2B4CD0BB790F2B49D0FB7947
:10A67000012B05D1BB79032B45D0BB79042B42D0EC
:10A680007B79012B1BD1FB79022B12D0022B3BDCF7
:10A69000002B02D0012B06D036E0BB7901229A4074
:10A6A0001C4B9A6130E0BB7901229A401A4B9A61A7
:10A6B0002AE0BB7901229A40184B9A6124E07B7909
:10A6C000002B21D1FB79022B14D0022B1CDC002B98
:10A6D00002D0012B07D017E0BB79103301229A403A
:10A6E0000C4B9A6110E0BB79103301229A400A4B5F
:10A6F0009A6109E0BB79103301229A40074B9A61B5
:10A7000002E000BF00E000BF00BF0C37BD465DF8AF
:10A71000047B704700000240000402400008024031
:10A7200080B582B000AF78607B6818787B68597814
:10A730007B689B781A46FFF72FFC7B6818787B684C
:10A7400059787B68DB781A46FFF7A6FC7B68187897
:10A750007B6859787B681B791A46FFF723FD7B6875
:10A7600018787B6859787B685B791A46FFF79AFD01
:10A770007B6818787B6859787B689B791A46FFF765
:10A7800097FE00BF0837BD4680BD000080B483B08F
:10A7900000AF78600B46FB70FB780F2B04D8FB787A
:10A7A00004497A6841F8232000BF0C37BD465DF8A4
:10A7B000047B70472409002080B500AF074B1B685D
:10A7C000002B02D0054B1B689847054B5B69044A78
:10A7D00043F00103536100BF80BD00BF2409002086
:10A7E000003C014080B500AF074B5B68002B02D0F6
:10A7F000054B5B689847054B5B69044A43F00203CD
:10A80000536100BF80BD00BF24090020003C01400F
:10A8100080B500AF074B9B68002B02D0054B9B68AF
:10A820009847054B5B69044A43F00403536100BF3A
:10A8300080BD00BF24090020003C014080B500AF6E
:10A84000074BDB68002B02D0054BDB689847054BB4
:10A850005B69044A43F00803536100BF80BD00BF39
:10A8600024090020003C014080B500AF074B1B6964
:10A87000002B02D0054B1B699847054B5B69044AC6
:10A8800043F01003536100BF80BD00BF24090020C6
:10A89000003C014080B582B000AF164B5A69154BA1
:10A8A0001B68134003F478733B60124A3B685361A2
:10A8B0000523FB7115E0FB793A6822FA03F303F0F4
:10A8C0000103002B0AD0FB790B4A52F82330002BEE
:10A8D00004D0FB79084A52F823309847FB790133BA
:10A8E000FB71FB79092BE6D900BF00BF0837BD46D5
:10A8F00080BD00BF003C0140240900200000000092
:10A9000080B582B000AF1448FFF70AFF1348FFF785
:10A9100007FF00233B7102237B713B1D1846FFF7A5
:10A920004FF900F09DF8112000F068F89FED080B3A
:10A93000FFF7AEF93A2000F061F8052000F076F854
:10A94000292000F05BF800BF0837BD4680BD00BF7E
:10A950000000000000002E40100000201800002021
:10A9600090B585B000AF0446084611461A46234606
:10A97000FB800346BB800B467B8013463B80B7F9C8
:10A980000230002B34DBB7F902309F2B30DCB7F9F3
:10A990000620B7F904309A4205DDFB88FB81BB88AD
:10A9A000FB80FB89BB80B7F90430002B22DBB7F9B1
:10A9B00006307F2B1EDCB7F90630002B01DA0023AE
:10A9C000FB80B7F904307F2B01DD7F23BB80FB8840
:10A9D000BA881146184600F0AFF87B887A8811468D
:10A9E000184600F0E5F83B88184600F02DF902E023
:10A9F00000BF00E000BF1437BD4690BD80B582B0F7
:10AA000000AF0346FB71084B1B78074A51780022C0
:10AA10001846FFF7C7FCFB791846FFF7F3F900BFAC
:10AA20000837BD4680BD00BF1800002080B582B049
:10AA300000AF0346FB71084B1B78074A517801228F
:10AA40001846FFF7AFFCFB791846FFF7DBF900BFAC
:10AA50000837BD4680BD00BF180000200000000080
:10AA600080B500AF244B1B78234A51780122184649
:10AA7000FFF798FC9FED1A0BFFF740F91E4B1B7870
:10AA80001D4A517800221846FFF78CFC9FED160BEB
:10AA9000FFF734F9184B1B78174A517801221846F2
:10AAA000FFF780FC9FED0E0BFFF728F9124B1B7888
:10AAB000114A517800221846FFF774FC9FED080BED
:10AAC000FFF71CF90C4B1B780B4A517801221846F2
:10AAD000FFF768FC9FED060BFFF7DAF800BF80BDBB
:10AAE0000000000000005940000000000000F03F9E
:10AAF0000000000000005E401000002080B582B021
:10AB000000AF0346FB800B46BB8013467B80FA8870
:10AB1000FB881146184600F00FF8BA88BB8811462A
:10AB2000184600F045F87B88184600F08DF800BF05
:10AB30000837BD4680BD000080B584B000AF034635
:10AB40000A46FB801346BB80174AFB881380174ACE
:10AB5000BB881380144B1B889BB21B12FB73124BD8
:10AB60001B889BB2BB73114B1B889BB21B127B7360
:10AB70000E4B1B889BB23B732A20FFF73FFFFB7BEA
:10AB80001846FFF753FFBB7B1846FFF74FFF7B7B51
:10AB90001846FFF74BFF3B7B1846FFF747FF00BF08
:10ABA0001037BD4680BD00BF640900206809002041
:10ABB00080B584B000AF03460A46FB801346BB80D5
:10ABC000144AFB881380144ABB881380FB881B0A35
:10ABD0009BB2FB73FB88BB73BB881B0A9BB27B7366
:10ABE000BB883B732B20FFF709FFFB7B1846FFF761
:10ABF0001DFFBB7B1846FFF719FF7B7B1846FFF74D
:10AC000015FF3B7B1846FFF711FF00BF1037BD460D
:10AC100080BD00BF660900206A09002080B582B0AF
:10AC200000AF0346FB807F210020FFF785FF9F21B7
:10AC30000020FFF7BDFFFB88184600F005F800BFB5
:10AC40000837BD4680BD000080B586B000AF034622
:10AC5000FB80FB881B0A9BB2FB74FB88BB74204BF8
:10AC60001B889AB21F4B1B889BB29A4233D31E4B50
:10AC70001B889AB21D4B1B889BB29A422BD3184B50
:10AC80001B889BB21A46174B1B889BB2D31A013301
:10AC90001A46154B1B889BB21946144B1B889BB256
:10ACA000CB1A013302FB03F3FB602C20FFF7A6FE57
:10ACB00000237B610AE0FB7C1846FFF7B7FEBB7CF4
:10ACC0001846FFF7B3FE7B6901337B617A69FB6845
:10ACD0009A42F0D300E000BF1837BD4680BD00BFE8
:10ACE00068090020640900206A0900206609002024
:10ACF00090B587B000AF0446084611461A46234671
:10AD0000FB800346BB800B467B8013463B807A88E2
:10AD1000FB88D31A9BB2FB823A88BB88D31A9BB2BA
:10AD2000BB82B7F91630002B01DB012301E04FF0A5
:10AD3000FF33BB81B7F91430002B01DB012301E0A5
:10AD40004FF0FF337B81B7F91630002B03DAFB8A13
:10AD50005B429BB2FB82B7F91430002B03DABB8A4B
:10AD60005B429BB2BB82FA8ABB8AD31A9BB27B82BC
:10AD7000FB883B82BB88FB81B7F91030002B11DBCD
:10AD8000B7F910307F2B0DDCB7F90E30002B09DB43
:10AD9000B7F90E309F2B05DC3B8AF9893A8D1846AE
:10ADA000FFF7ACFEB7F90230B7F910209A4205D18F
:10ADB000B7F90030B7F90E209A4225D07B8A5B00A4
:10ADC0009BB23B81B7F90820B7F914305B429A4235
:10ADD00009DD7A8ABB8AD31A9BB27B823A8ABB8905
:10ADE00013449BB23B82B7F90820B7F916309A4258
:10ADF000C2DA7A8AFB8A13449BB27B82FA897B8906
:10AE000013449BB2FB81B7E700BF00BF1C37BD46B0
:10AE100090BD90B585B000AF0446084611461A466D
:10AE20002346FB800346BB800B467B8013463B805A
:10AE30000023FB817B88BB817B88C3F101039BB22C
:10AE40007B81DFE0FA88B7F90E3013447F2B11DCE9
:10AE5000BA88B7F90C3013449F2B0BDCFA89FB88B6
:10AE6000134498B2BA89BB8813449BB23A881946F6
:10AE7000FFF744FEFA88B7F90C3013447F2B11DC3E
:10AE8000BA88B7F90E3013449F2B0BDCBA89FB88C4
:10AE9000134498B2FA89BB8813449BB23A88194686
:10AEA000FFF72CFEFA88B7F90E309A4211DBBA8808
:10AEB000B7F90C3013449F2B0BDCFB89FA88D31AAB
:10AEC00098B2BA89BB8813449BB23A881946FFF7F7
:10AED00015FEFA88B7F90C309A4211DBBA88B7F937
:10AEE0000E3013449F2B0BDCBB89FA88D31A98B21F
:10AEF000FA89BB8813449BB23A881946FFF7FEFDD6
:10AF0000FA88B7F90E309A4210DBBA88B7F90C30DC
:10AF10009A420BDBFB89FA88D31A98B2BB89BA88AC
:10AF2000D31A9BB23A881946FFF7E8FDFA88B7F9B9
:10AF30000C309A4210DBBA88B7F90E309A420BDB1C
:10AF4000BB89FA88D31A98B2FB89BA88D31A9BB204
:10AF50003A881946FFF7D2FDFA88B7F90E30134444
:10AF60007F2B10DCBA88B7F90C309A420BDBFA89D8
:10AF7000FB88134498B2BB89BA88D31A9BB23A882B
:10AF80001946FFF7BBFDFA88B7F90C3013447F2B45
:10AF900010DCBA88B7F90E309A420BDBBA89FB880D
:10AFA000134498B2FB89BA88D31A9BB23A881946DF
:10AFB000FFF7A4FDB7F90A30002B09DAFB895B0023
:10AFC0009AB27B8913449BB203339BB27B8113E01B
:10AFD000B7F90E20B7F90C30D31A9BB25B009AB2C6
:10AFE0007B8913449BB205339BB27B81B7F90C304C
:10AFF0009BB2013B9BB2BB81B7F90E309BB20133D0
:10B000009BB2FB81B7F90E20B7F90C309A427FF75B
:10B0100019AF00BF00BF1437BD4690BD90B585B0D5
:10B0200000AF0446084611461A462346FB800346F5
:10B03000BB800B467B8013463B800023FB817B88D3
:10B04000BB817B88C3F101039BB27B816FE0BB892D
:10B05000FA88D31A9BB218B2BA89FB8813449BB200
:10B0600019B2FA89BB8813449BB21AB23B88FFF726
:10B0700077FCBB89FA88D31A9BB218B2BA89FB88CD
:10B0800013449BB219B2FB89BA88D31A9BB21AB285
:10B090003B88FFF765FCFB89FA88D31A9BB218B28C
:10B0A000FA89FB8813449BB219B2BA89BB8813444E
:10B0B0009BB21AB23B88FFF753FCFB89FA88D31A7C
:10B0C0009BB218B2FA89FB8813449BB219B2BB89B0
:10B0D000BA88D31A9BB21AB23B88FFF741FCB7F982
:10B0E0000A30002B09DAFB895B009AB27B89134492
:10B0F0009BB203339BB27B8113E0B7F90E20B7F903
:10B100000C30D31A9BB25B009AB27B8913449BB27A
:10B1100005339BB27B81B7F90C309BB2013B9BB2EC
:10B12000BB81B7F90E309BB201339BB2FB81B7F9FB
:10B130000E20B7F90C309A4289DD00BF00BF1437EA
:10B14000BD4690BD80B584B000AF0346FB71FB796E
:10B1500003F00703FB710023FB7320E0FB7903F18D
:10B160000802FB7BD31A5A4203F0070302F00702DE
:10B1700058BF5342BB73BB7B0D4A32F81330BB81BF
:10B18000FB7B0C4AD35C1846FB7B0B4AD35C19460D
:10B19000BB890422FFF742FFFB7B0133FB73FB7B80
:10B1A000072BDBD900BF00BF1037BD4680BD00BFF5
:10B1B000DC560108CC560108D456010880B582B08F
:10B1C00000AF0346FB71094AFB791370FB79002B32
:10B1D00014BF01230023DBB21A460B210020FFF726
:10B1E00031FA00BF0837BD4680BD00BF6D090020A1
:10B1F00080B582B000AF0C4A3B4692E8030018606D
:10B200000433198002330A0C1A703B461846FFF7C4
:10B2100087FA064B00221A700020FFF7CFFF00BF0D
:10B220000837BD4680BD00BFEC5601086C09002000
:10B2300080B582B000AF0346FB71FB79002B0BD0C9
:10B2400000F014F90346094A13600120FFF7B6FF26
:10B25000074B01221A7005E0054B00221A700020EE
:10B26000FFF7ACFF00BF0837BD4680BD7009002066
:10B270006C09002080B483B000AF78607B68002246
:10B280001A607B6800225A607B6800221A727B6811
:10B2900000225A7200BF0C37BD465DF8047B704730
:10B2A00080B487B000AFF860B9607A60FB681B6853
:10B2B000BA68D31A7B61FB68BA681A60FB685B7A6C
:10B2C000002B04D1FB6801225A72002369E07B69DC
:10B2D00042F6DF6293420ED97B69B3F57A5F0AD8F2
:10B2E000FB6800225A60FB6800221A72FB68022287
:10B2F0005A72002355E0FB685B7A022B50D17B69C0
:10B30000B3F5E16F0FD37B6940F6282293420AD848
:10B31000FB685A68FB681B7A194601238B401A4365
:10B32000FB685A600CE07B69B3F5617F03D37B69EE
:10B33000B3F5AF6F04D9FB6801225A72002330E0E5
:10B34000FB681B7A0133DAB2FB681A72FB681B7A5E
:10B35000202B25D1FB685B68FB74FB685B681B0ACC
:10B36000BB74FB685B681B0C7B74FB685B681B0E23
:10B370003B74FB6800225A72FA7CBB7C5340DBB200
:10B38000FF2B0DD17A7C3B7C5340DBB2FF2B07D1E6
:10B390007B68FA7C1A707B687A7C5A70012300E023
:10B3A000002318461C37BD465DF8047B704700003B
:10B3B00080B483B000AF0346FB71FB7903F01F023A
:10B3C000074997F907305B09012000FA02F241F8BA
:10B3D000232000BF0C37BD465DF8047B704700BFDB
:10B3E00000E100E080B483B000AF0346FB71FB795D
:10B3F00003F01F02074997F907305B09012000FAA3
:10B4000002F2603341F8232000BF0C37BD465DF8DF
:10B41000047B704700E100E080B483B000AF0346D6
:10B420003960FB7197F90730002B0BDA3B68DAB211
:10B430000C49FB7903F00F03043B1201D2B20B4419
:10B440001A7609E03B68DAB2074997F9073012012A
:10B45000D2B20B4483F8002300BF0C37BD465DF821
:10B46000047B704700ED00E000E100E080B400AF35
:10B470004FF080435B6A1846BD465DF8047B704719
:10B4800080B582B000AF204B1B6801331E4A1360A9
:10B49000FFF7ECFF01463B1D1A461C48FFF700FF73
:10B4A0000346002B2BD01A4B1B680133184A13603C
:10B4B000184B1B78DBB201335A4203F00F0302F042
:10B4C0000F0258BF5342FB71134B1B78DBB2FA7962
:10B4D0009A4205D1114B1B680133104A13600FE0EB
:10B4E0000C4B1B78DBB219460D4ABB8822F8113091
:10B4F000BFF35F8F00BF074AFB79137000E000BF06
:10B500000837BD4680BD00BFA40900207409002093
:10B51000A8090020A0090020A1090020AC090020F2
:10B520008009002080B485B000AF7860164B1B788E
:10B53000FB737B68002B05D0144B1B78DBB2FA7BC6
:10B540009A4201D1002319E0BFF35F8F00BFFB7B5C
:10B5500079680F4A5B0013441B880B80BFF35F8F31
:10B5600000BFFB7B01335A4203F00F0302F00F02CE
:10B5700058BF5342DAB2044B1A70012318461437ED
:10B58000BD465DF8047B7047A1090020A00900209A
:10B590008009002080B582B000AF114B1B6803F01A
:10B5A00040037B600E4B1B680D4A23F04003136081
:10B5B000BFF34F8F00BF0B4B1B78DAB20A4B1A70E8
:10B5C0000A48FFF757FE064B40225A61044B1A689F
:10B5D00003497B6813430B6000BF0837BD4680BD3D
:10B5E000003C0140A0090020A109002074090020AE
:10B5F00080B500AF064B1B68054A23F0400313607B
:10B60000BFF34F8F00BFFFF7C5FF00BF80BD00BF76
:10B61000003C014080B584B000AF654B1B68644AB4
:10B6200023F04003136000BF624B9B689A08614B94
:10B630009B68534003F00303002BF5D1FEF712F88B
:10B640005C4B9B689B0A03F00703BB605A4B1B686B
:10B65000FB60BB68032B06D9BB68033BFA6822FA80
:10B6600003F35B00FB60FB68544A93420AD9FA6813
:10B67000534BA3FB02139B0C524901FB03F3D31A58
:10B68000002B01D000238EE0FB684D4AA2FB032370
:10B690009B0C7B607B68B3F5803F01D9002382E07F
:10B6A000444B1B6B434A43F001031363414B5B6CF8
:10B6B000404A43F4804353643E4B1B6C3D4A43F085
:10B6C000010313643B4B1B6C3F4B1B683E4A23F446
:10B6D000405313603C4BDB6823F440533A4A43F435
:10B6E0008053D360394BDB68384A23F47063D360EE
:10B6F0004FF0804300221A604FF080430022DA604E
:10B700004FF0804300229A604FF080427B68013BFB
:10B7100093624FF080434FF0FF32DA624FF0804384
:10B7200001225A614FF0804300221A614FF080439A
:10B7300000225A624FF0804301221A600021244BFC
:10B740000A461A70234B0A461A700023224A1360D5
:10B75000224A1360224A13602248FFF78BFD06211C
:10B760002148FFF713F8124B9B68114A23F040035E
:10B7700093600F4BDB680E4A43F04003D3600C4BE1
:10B7800040225A6101211720FFF746FE1720FFF7DC
:10B7900029FE1720FFF70CFE054B1B68044A43F0F7
:10B7A00040031360012318461037BD4680BD00BF1B
:10B7B000003C0140003802400C0000203F420F00D6
:10B7C00083DE1B4340420F0000000240003801406E
:10B7D000A1090020A0090020AC090020A809002030
:10B7E000A40900207409002081B4000880B485B049
:10B7F00000AF78600023FB730BE0FB7B7A68134497
:10B800001B78DAB2FB7B51B20C4AD154FB7B01337B
:10B81000FB73FB7B3E2B06D8FB7B7A6813441B78BB
:10B82000DBB2002BE9D1FB7B044A0021D15400BFDD
:10B830001437BD465DF8047B704700BFB409002093
:10B8400080B485B000AF786039607B68002B02D08F
:10B850003B68002B28D100232CE07B68FB603B6811
:10B86000BB6005E0FB680133FB60BB680133BB6074
:10B87000FB6893F90030002B0CD0BB6893F90030C3
:10B88000002B07D0FB6893F90020BB6893F90030C8
:10B890009A42E7D0BB6893F90030002B01D1012315
:10B8A00008E07B6801337B607B6893F90030002BF4
:10B8B000D3D1002318461437BD465DF8047B70478A
:10B8C00080B485B000AF78600023FB817B68002BDB
:10B8D0000AD002E0FB890133FB81FB897A681344BB
:10B8E00093F90030002BF5D1FB8918461437BD467B
:10B8F0005DF8047B7047000080B485B000AF03465C
:10B900003960FB800023FB73FB88002B23D13B684D
:10B9100030221A703B68013300221A703CE0FA882A
:10B92000204BA3FB0213D9080B469B000B445B0082
:10B93000D31A9BB2DBB23033DAB2FB7B591CF973FA
:10B9400052B210333B4403F8082CFB88154AA2FB83
:10B950000323DB08FB80FB88002B02D0FB7B052B3D
:10B96000DDD90023BB730EE0FA7BBB7BD31A5A1ED2
:10B97000BB7B39680B4410323A4412F9082C1A7018
:10B98000BB7B0133BB73BA7BFB7B9A42ECD3FB7B63
:10B990003A68134400221A701437BD465DF8047BE0
:10B9A000704700BFCDCCCCCC80B5A6B000AF7860DE
:10B9B00039600023A7F896300023C7F8903066E07E
:10B9C00097F88F303E2B08D139497868FFF738FF58
:10B9D0000346002B49D000235FE097F88F300D2BF2
:10B9E00003D097F88F300A2B2ED1B7F896309833C2
:10B9F0003B44002203F88C2C07F10C031846FFF798
:10BA0000F5FE07F10C032B491846FFF719FF034613
:10BA1000002B08D107F10C0327491846FFF710FF48
:10BA20000346002B01D0022337E007F10C037968AD
:10BA30001846FFF705FF0346002B01D000232CE03A
:10BA40000023A7F8963011E0B7F896307E2B0DD87A
:10BA500097F88F20B7F89630591CA7F8961052B275
:10BA600098333B4403F88C2C00E000BF07F18F03B0
:10BA70001846FDF777FE0346002BA1D19FED0A0B78
:10BA8000FEF706F9D7F890300A33C7F89030D7F8A8
:10BA900090203B689A42E9D3012318469837BD4667
:10BAA00080BD00BFAFF30080000000000000244014
:10BAB000F4560108F856010800570108000000007C
:10BAC00080B5C6B000AF07F58C73A3F58A73186014
:10BAD0000A4607F58C73A3F58B731A800023A7F829
:10BAE00016310023C7F8103191E097F80D310D2B76
:10BAF00003D097F80D310A2B65D1B7F8163107F549
:10BB00008C72A2F586720021D15407F10C031846FD
:10BB1000FFF76CFE07F10C0345491846FFF790FE4E
:10BB20000346002B08D107F10C0342491846FFF7E2
:10BB300087FE0346002B37D00023A7F80E3114E010
:10BB4000B7F80E21B7F80E3107F58C71A1F58A719F
:10BB500009680B4407F58C71A1F586718A561A7035
:10BB6000B7F80E310133A7F80E31B7F80E3107F5EB
:10BB70008C72A2F58672D356002B09D0B7F80E212D
:10BB800007F58C73A3F58B731B88013B9A42D7DBB7
:10BB9000B7F80E3107F58C72A2F58A721268134459
:10BBA00000221A70002339E007F10C0322491846DD
:10BBB000FFF746FE0346002B01D002232EE00023B0
:10BBC000A7F8163111E0B7F81631FE2B0DD897F80B
:10BBD0000D11B7F816315A1CA7F816211A4649B2AA
:10BBE00007F58C73A3F58673995407F20D13184665
:10BBF000FDF7B8FD0346002B7FF477AF9FED0A0BEE
:10BC0000FEF746F8D7F810310A33C7F81031D7F8E5
:10BC1000103142F20F729342E7D90123184607F51B
:10BC20008C77BD4680BD00BF0000000000002440AE
:10BC30000857010810570108F856010880B584B06C
:10BC400000AFF860B9607A60FDF7C2FDF868FDF7F3
:10BC5000B1FE7968B868FFF7A7FE03461A46044BA1
:10BC60001A70034B1B78DBB218461037BD4680BDF7
:10BC7000B309002080B485B000AFF8607B600B464C
:10BC80007B8113463B817B68002B0DD17B8916E0BD
:10BC90007B685A1C7A607A89511C79811146FA684E
:10BCA0000A4493F9003013707B6893F90030002B3D
:10BCB00004D07A893B89013B9A42E9DB7B891846AB
:10BCC0001437BD465DF8047B7047000080B500AFB7
:10BCD000114B00221A70FDF7A1FD0F4B01221A70C3
:10BCE000FDF776FD0D4B00221A700D4B00221A70E5
:10BCF00041F288320B490C48FFF7A0FF064B0222A5
:10BD00001A7041F2883207490848FFF797FF024B43
:10BD100003221A7000BF80BDB2090020B0090020C4
:10BD2000B1090020185701081C57010824570108C1
:10BD300080B5ACB000AF786039600023A7F8AE30B2
:10BD4000B7F8AE1007F10C002F4BA022FFF792FFBF
:10BD50000346A7F8AE30B7F8AE1007F10C007B68C9
:10BD6000A022FFF787FF0346A7F8AE30B7F8AE1062
:10BD700007F10C00254BA022FFF77CFF0346A7F834
:10BD8000AE30B7F8AE1007F10C003B68A022FFF709
:10BD900071FF0346A7F8AE30B7F8AE1007F10C00FC
:10BDA0001B4BA022FFF766FF0346A7F8AE30B7F89B
:10BDB000AE30B0333B44002203F8A42C154B0422D0
:10BDC0001A7007F10C0343F6982213491846FFF73F
:10BDD00035FF034687F8AD3097F8AD30002B0CBF28
:10BDE00001230023DBB21A460C4B1A7097F8AD30D2
:10BDF000002B02D1074B05221A7097F8AD30184678
:10BE0000B037BD4680BD00BF345701084057010818
:10BE100044570108B209002018570108B109002051
:10BE200080B59CB000AF786039600023A7F86E3011
:10BE3000B7F86E1007F10C002D4B6022FFF71AFFC8
:10BE40000346A7F86E30B7F86E1007F10C007B6858
:10BE50006022FFF70FFF0346A7F86E30B7F86E10A9
:10BE600007F10C00234B6022FFF704FF0346A7F8FD
:10BE70006E30B7F86E1007F10C003B686022FFF7D8
:10BE8000F9FE0346A7F86E30B7F86E1007F10C0004
:10BE9000194B6022FFF7EEFE0346A7F86E30B7F8A5
:10BEA0006E3070333B44002203F8642C07F10C031E
:10BEB00041F2883211491846FFF7C0FE034687F861
:10BEC0006D3097F86D30002B0CBF01230023DBB2DF
:10BED0001A460B4B1A700A4B1B78002B02D0094BE9
:10BEE00006221A7097F86D3018467037BD4680BD2F
:10BEF000485701085C5701086057010818570108A6
:10BF0000B0090020B209002080B586B000AFF8600B
:10BF1000B9607A603B600223BB750023FB7521E0AA
:10BF2000174B1B78002B05D1B968F868FFF700FFA5
:10BF30000346BB75124B1B78002B0AD03968786812
:10BF4000FFF76EFF0346BB75BB7D002B01D10023BD
:10BF50000EE000F031FA9FED080BFDF799FEFB7D36
:10BF60000133FB75FA7D97F820309A42D8D3BB7D18
:10BF700018461837BD4680BD0000000000408F40C5
:10BF8000B109002080B5B0B000AFF860B9601346C9
:10BF9000FB800023A7F8BE303D4B1B78002B08D058
:10BFA000FB68002B05D0BB68002B02D0FB88012B5F
:10BFB00001D8032367E0B7F8BE1007F11C00354B2A
:10BFC000A022FFF757FE0346A7F8BE30B7F8BE1011
:10BFD00007F11C00FB68A022FFF74CFE0346A7F800
:10BFE000BE30B7F8BE1007F11C002B4BA022FFF7A4
:10BFF00041FE0346A7F8BE30B7F8BE30C0333B441D
:10C00000002203F8A42C07F11C031846FFF758FC84
:10C010000346A7F8BC3007F11402B7F8BC3011464C
:10C020001846FFF769FCFDF7D3FB1C48FDF7C2FC7F
:10C0300007F114031846FDF7BDFC1948FDF7BAFCDB
:10C0400041F288311748FFF7AFFC0346002B03D0BD
:10C0500000F0B2F9022316E0FDF7BAFB07F11C036A
:10C060001846FDF7A7FCBB6800221A70FB8819462A
:10C07000B868FFF725FD0346002B01D1002302E03D
:10C0800000F09AF901231846C037BD4680BD00BFB5
:10C09000B0090020645701086C570108AC5701082B
:10C0A00060570108F456010880B487B000AF78608B
:10C0B00039603B681B88FB8206233B8202E0FB8AD7
:10C0C000013BFB82FB8A002B0FD0FB8A013B7A6885
:10C0D000134493F900300D2BF1D0FB8A013B7A68B1
:10C0E000134493F900300A2BE9D0FA8A3B8A9A422A
:10C0F00023D3FA8A3B8AD31AFB810123FB740023E2
:10C10000BB8211E0FA89BB8A13441A467B68134448
:10C1100093F90020BB8A1049CB569A4201D00023E4
:10C12000FB74BB8A0133BB82BA8A3B8A9A42E9D349
:10C13000FB7C002B01D0FB89FB82FB8A7A681344CD
:10C1400000221A703B68FA8A1A8000BF1C37BD466D
:10C150005DF8047B704700BFD05701080000000065
:10C1600080B586B000AF78600B467B8000237B6192
:10C170000023FB740023BB7400237B740023BB816A
:10C180007B6800221A704CE000233B7429E00123F5
:10C190003B74FB7C002B14D1BB7C0D2B0CD17B7C26
:10C1A0000A2B09D1FB7B0A2B06D10123FB74002348
:10C1B000BB7400237B7414E0BB7C7B74FB7BBB747F
:10C1C0000FE0BB891A467B88013B9A4209DAFA7B69
:10C1D000BB89591C89B2B98119467B680B4452B29C
:10C1E0001A7007F10F031846FDF7BCFA0346002B3F
:10C1F000CDD13B7C002B14D1FB7C002B0AD0BB891A
:10C20000002B07D09FED140BFDF742FD7B69C8336F
:10C210007B610BE09FED120BFDF73AFD7B690A3362
:10C220007B617B6942F20F729342ADD9BB891A469A
:10C230007B68134400221A7007F10C0319467868D2
:10C24000FFF732FFBB89002B0CBF01230023DBB2B9
:10C2500018461837BD4680BD000000000000694048
:10C26000000000000000244080B5B0B000AFF860CE
:10C27000B9601346FB800023A7F8BE303B4B1B7808
:10C28000002B08D0FB68002B05D0BB68002B02D028
:10C29000FB88012B01D8032364E0B7F8BE1007F137
:10C2A0001C00334BA022FFF7E5FC0346A7F8BE3085
:10C2B000B7F8BE1007F11C00FB68A022FFF7DAFCFC
:10C2C0000346A7F8BE30B7F8BE1007F11C00294B93
:10C2D000A022FFF7CFFC0346A7F8BE30B7F8BE3068
:10C2E000C0333B44002203F8A42C07F11C0318467A
:10C2F000FFF7E6FA0346A7F8BC3007F11402B7F8D7
:10C30000BC3011461846FFF7F7FAFDF761FA1A48F4
:10C31000FDF750FB07F114031846FDF74BFB1748D8
:10C32000FDF748FB41F288311548FFF73DFB034616
:10C33000002B03D000F040F8022313E0FDF748FA89
:10C3400007F11C031846FDF735FBFB881946B86852
:10C35000FFF706FF0346002B01D1002302E000F0A7
:10C360002BF801231846C037BD4680BDB009002018
:10C37000645701086C570108AC5701086057010861
:10C38000F456010880B500AF084B1B78002B05D090
:10C3900041F2883206490748FFF750FC034B002260
:10C3A0001A70FDF715FA00BF80BD00BFB00900206C
:10C3B00018570108B857010880B500AFFDF708FA13
:10C3C0000748FDF7F7FA9FED040BFDF761FCFFF757
:10C3D000D9FF00BF80BD00BF000000000000594031
:10C3E000C857010880B584B000AF03460A46FB7108
:10C3F0001346BB710023FB738C4B1A88FB7999B2EF
:10C400008A4B5B8911FB03F39BB21344BB81874BBF
:10C410005B887B81854B5A8ABB8913449BB2013B65
:10C420009AB2BB8911461846FEF786FB7F4B9A8A63
:10C430007B8913449BB2013B9AB27B891146184613
:10C44000FEF7B6FB4FF6FF70FEF7FEFBBB79013B34
:10C45000052B00F2E78001A252F823F075C4000812
:10C460008BC40008B5C40008F3C4000845C5000823
:10C47000ABC50008BB890B3398B27B890B339BB2E9
:10C4800000221946FEF73AFBCCE0BB89043398B290
:10C490007B8904339BB200221946FEF72FFBBB8930
:10C4A000123398B27B8912339BB200221946FEF7F1
:10C4B00025FBB7E0BB89043398B27B8904339BB278
:10C4C00000221946FEF71AFBBB890B3398B27B8911
:10C4D0000B339BB200221946FEF710FBBB891233C7
:10C4E00098B27B8912339BB200221946FEF706FBF5
:10C4F00098E0BB89043398B27B8904339BB2002255
:10C500001946FEF7FBFABB89123398B27B890433D4
:10C510009BB200221946FEF7F1FABB89043398B2A8
:10C520007B8912339BB200221946FEF7E7FABB89DA
:10C53000123398B27B8912339BB200221946FEF760
:10C54000DDFA6FE0BB89043398B27B8904339BB278
:10C5500000221946FEF7D2FABB89123398B27B89C2
:10C5600004339BB200221946FEF7C8FABB890B338D
:10C5700098B27B890B339BB200221946FEF7BEFAB4
:10C58000BB89043398B27B8912339BB200221946CF
:10C59000FEF7B4FABB89123398B27B8912339BB28F
:10C5A00000221946FEF7AAFA3CE0BB89043398B290
:10C5B0007B8904339BB200221946FEF79FFABB89A0
:10C5C0000B3398B27B8904339BB200221946FEF7E5
:10C5D00095FABB89123398B27B8904339BB200224F
:10C5E0001946FEF78BFABB89043398B27B89123364
:10C5F0009BB200221946FEF781FABB890B3398B231
:10C600007B8912339BB200221946FEF777FABB8969
:10C61000123398B27B8912339BB200221946FEF77F
:10C620006DFA00BF00BF1037BD4680BDC85C010871
:10C6300080B588B002AF78607B681B7D344AA2FB6E
:10C640000323DB08DBB23033DBB25BB23B747B68C5
:10C650001A7D2F4BA3FB0213D9080B469B000B44FA
:10C660005B00D31ADBB23033DBB25BB27B740023E6
:10C67000BB74012301930023009340F2FF73254A0A
:10C680008E21042003F03AFB07F1100201230193ED
:10C69000002300934FF6FF738E21142003F02EFB2E
:10C6A0007B685B7D1A4AA2FB0323DB08DBB23033D5
:10C6B000DBB25BB23B727B685A7D154BA3FB021366
:10C6C000D9080B469B000B445B00D31ADBB2303316
:10C6D000DBB25BB27B720023BB72012301930023A8
:10C6E00000934FF61F030C4A8E21402003F006FBF7
:10C6F00007F1080201230193002300934FF6FF7313
:10C700008E21502003F0FAFA00BF1837BD4680BDD5
:10C71000CDCCCCCCD8570108DC57010880B500AF90
:10C72000074B00221A70074B00221A700020FEF7F8
:10C7300075FA054805F07EF805F0D2FB00BF80BD14
:10C74000F4090020F5090020C85C010880B584B018
:10C7500000AF786000237B737B68002B3FD07B6841
:10C760001B78002B03D17B685B78032B37D11E4BE2
:10C770001B78002B05D07B68DA781C4B1B789A421B
:10C780002ED0194B1B78002B08D10020FEF746FA5B
:10C79000174805F04FF87868FFF74AFF7B68DA78AA
:10C7A000124B1A700023FB7312E0FB7B7A68134470
:10C7B0001B79BB73BB7B002B01D10123BB73BA7BFD
:10C7C000FB7B11461846FFF70DFEFB7B0133FB7325
:10C7D000FB7B042BE9D9044B01221A7000E000BF57
:10C7E0001037BD4680BD00BFF4090020F5090020C8
:10C7F000C85C010880B582B002AF0020FEF70EFAD7
:10C800000D4805F017F8012301930023009340F22F
:10C81000FF730A4A0521142003F070FA01230193E3
:10C820000023009348F21043054A8E21122003F0A2
:10C8300065FA00BFBD4680BDC85C0108E05701082D
:10C84000E857010880B483B000AF7860396005E034
:10C850007B6801337B603B6801333B607B6893F905
:10C860000030002B0CD03B6893F90030002B07D030
:10C870007B6893F900203B6893F900309A42E7D037
:10C880007B6893F90030002B06D13B6893F90030A8
:10C89000002B01D1012300E00023DBB218460C3746
:10C8A000BD465DF8047B704780B582B000AF78600C
:10C8B0003C4B1B78002B6CD03B4B1A787B681B7869
:10C8C0009A4266D1384B5A787B685B789A4260D13D
:10C8D000354B93F85B207B6893F85B309A4258D1D4
:10C8E000314B9A787B689B789A4252D12E4BDA78FA
:10C8F0007B68DB789A424CD17B6804330522194669
:10C900002A4808F0DBF80346002B42D1264B5A7A1E
:10C910007B685B7A9A423CD17B680A33224A527A1E
:10C920001946234808F0CAF80346002B31D17B682A
:10C930000F331D4A527A19461E4808F0BFF80346C5
:10C94000002B26D1184B1A7D7B681B7D9A4220D183
:10C95000154B5A7D7B685B7D9A421AD17B685C33AC
:10C9600019461548FFF76EFF0346002B11D07B6870
:10C97000703319461148FFF765FF0346002B08D0B6
:10C980007B681A3319460E48FFF75CFF0346002BFD
:10C9900001D1012300E00023DBB218460837BD4671
:10C9A00080BD00BF740A0020F8090020FC090020A7
:10C9B000020A0020070A0020540A0020680A00200A
:10C9C000120A002080B485B000AF786039603B68FF
:10C9D0001A787B681A703B685A787B685A703B6893
:10C9E00093F85B207B6883F85B203B689A787B68D0
:10C9F0009A703B68DA787B68DA703B685A7A7B68B1
:10CA00005A723B681A7D7B681A753B685A7D7B6851
:10CA10005A753B681A7D7B681A753B685A7D7B683E
:10CA20005A753B6893F85A207B6883F85A20002394
:10CA3000FB730BE0FA7BFB7B39680A4411797A6857
:10CA400013440A461A71FB7B0133FB73FB7B042BF7
:10CA5000F0D90023FB730CE0FB7B7A6813440022BF
:10CA60009A72FB7B7A6813440022DA73FB7B0133F2
:10CA7000FB73FB7B042BEFD90023FB7314E0FA7BE1
:10CA8000FB7B39680A44917A7A6813440A469A72A1
:10CA9000FA7BFB7B39680A44D17B7A6813440A46E7
:10CAA000DA73FB7B0133FB733B685B7AFA7B9A4258
:10CAB00002D2FB7B042BE2D90023FB730DE0FA7B4F
:10CAC000FB7B39680A4492F95C107A6813440A4681
:10CAD00083F85C20FB7B0133FB73FB7B122B06D8B6
:10CAE000FB7B3A68134493F95C30002BE7D1FB7B66
:10CAF0007A681344002283F85C200023FB730DE066
:10CB0000FA7BFB7B39680A4492F970107A68134407
:10CB10000A4683F87020FB7B0133FB73FB7B0A2BF7
:10CB200006D8FB7B3A68134493F97030002BE7D1A9
:10CB3000FB7B7A681344002283F870200023FB7388
:10CB40000CE0FA7BFB7B39680A4492F91A107A6888
:10CB500013440A469A76FB7B0133FB73FB7B1E2B47
:10CB600006D8FB7B3A68134493F91A30002BE8D1BE
:10CB7000FB7B7A68134400229A760023FB730DE056
:10CB8000FA7BFB7B39680A4492F93A107A681344BD
:10CB90000A4683F83A20FB7B0133FB73FB7B1E2B99
:10CBA00006D8FB7B3A68134493F93A30002BE7D15F
:10CBB000FB7B7A681344002283F83A2000BF1437C5
:10CBC000BD465DF8047B704780B500AF034B002283
:10CBD0001A70FFF7A3FD00BF80BD00BF740A0020DC
:10CBE00080B582B000AF78607B68002B0FD078688A
:10CBF000FFF75AFE0346002B09D079680648FFF775
:10CC0000E1FE064B01221A707868FFF79FFD00BF16
:10CC10000837BD4680BD00BFF8090020740A002017
:10CC200080B500AF034B00221A70FFF7E3FD00BF91
:10CC300080BD00BF740A002080B584B002AF0346F7
:10CC4000FB710B46BB7113467B717B79002B06D1C0
:10CC5000BA79F97900230E4804F00AFE14E07B79D2
:10CC6000012B01D1582000E04F207B79012B02D10C
:10CC70004FF4784301E04FF6E073BA79F979009305
:10CC80000346034804F0EEFE00BF0837BD4680BDF2
:10CC90005C5C010890B587B002AF0346FB71FB797D
:10CCA000012B06D0FB79022B01D1E02302E0FF2308
:10CCB00000E00023BB730023FB7340E0FB79012BF2
:10CCC00002D0FB79022B14D1FB7B022B08D0FB7B1B
:10CCD000052B05D0FB7B062B02D0FB7B072B28D135
:10CCE000FB79032B05D0FB7B022B02D9FB7B062BA8
:10CCF00021D1FB79032B26D0FB7B1C4A12F8231091
:10CD0000FB7B1A4A9B0013445878FB7B174A9B0015
:10CD100013449C78FB7B154A9B001344DB78BA7B59
:10CD200092B20192009323460246114804F0DFFEBE
:10CD300002E000BF00E000BFFB7B0133FB73FB7B25
:10CD4000072BBBD900E000BFFB79032B0AD140F2CF
:10CD5000FF73019302230093012300220121044861
:10CD600004F0C5FE00BF1437BD4690BDFC57010856
:10CD70005C5C010880B500AF074B00221A70074BBE
:10CD800000221A700020FDF749FF054804F052FD0B
:10CD900005F0A6F800BF80BD750A0020760A0020C5
:10CDA0005C5C010880B584B000AF786000237B73C1
:10CDB0007B68002B5AD07B681B78002B03D17B68E3
:10CDC0005B78032B52D12B4B1B78002B05D07B6853
:10CDD0001A7B294B1B789A4249D0264B1B78002B93
:10CDE00005D10020FDF71AFF244804F023FD7B68DD
:10CDF0001A7B214B1A700023FB7327E00023BB73BF
:10CE00001EE07B7B5A1C7A731A467B681344DB78DE
:10CE10003B7397F90C30582B07D097F90C304F2BF8
:10CE200001D1022302E0002300E00123FB72FA7A21
:10CE3000B97BFB7B1846FFF7FFFEBB7B0133BB735F
:10CE4000BB7B022BDDD9FB7B0133FB73FB7B022B0E
:10CE5000D4D97B685B7B002B04D07B685B7B184656
:10CE6000FFF718FF034B01221A7000E000BF1037D4
:10CE7000BD4680BD750A0020760A00205C5C010872
:10CE800080B582B002AF0020FDF7C8FE01230193F8
:10CE90000023009340F2FF73034A46211E2002F054
:10CEA0002DFF00BFBD4680BDF057010880B483B0A0
:10CEB00000AF7860396005E07B6801337B603B68D8
:10CEC00001333B607B6893F90030002B0CD03B684A
:10CED00093F90030002B07D07B6893F900203B6862
:10CEE00093F900309A42E7D07B6893F90030002B29
:10CEF00006D13B6893F90030002B01D1012300E0FB
:10CF00000023DBB218460C37BD465DF8047B704742
:10CF100080B582B000AF78601D4B1B78002B2FD0FE
:10CF20001C4B1A787B681B789A4229D1194B5A7886
:10CF30007B685B789A4223D1164B9A787B689B7802
:10CF40009A421DD1134B1A7B7B681B7B9A4217D1E7
:10CF5000104B5A7B7B685B7B9A4211D17B680E3306
:10CF600019460D48FFF7A2FF0346002B08D07B6847
:10CF7000223319460948FFF799FF0346002B01D1D8
:10CF8000012300E00023DBB218460837BD4680BD10
:10CF9000A60A0020780A0020860A00209A0A0020AB
:10CFA00080B485B000AF786039603B681A787B68E0
:10CFB0001A703B685A787B685A703B689A787B682D
:10CFC0009A703B681A7B7B681A733B685A7B7B6854
:10CFD0005A730023FB730CE0FA7BFB7B39680A442D
:10CFE00092F903107A6813440A46DA70FB7B013326
:10CFF000FB73FB7B082BEFD97B680022DA720023DE
:10D00000FB730CE0FA7BFB7B39680A4492F90E1043
:10D010007A6813440A469A73FB7B0133FB73FB7BEC
:10D02000122B06D8FB7B3A68134493F90E30002B81
:10D03000E8D1FB7B7A68134400229A730023FB73C8
:10D040000DE0FA7BFB7B39680A4492F922107A687A
:10D0500013440A4683F82220FB7B0133FB73FB7BDE
:10D060000A2B06D8FB7B3A68134493F92230002B35
:10D07000E7D1FB7B7A681344002283F8222000BFAB
:10D080001437BD465DF8047B7047000080B500AFE3
:10D09000034B00221A70FFF76DFE00BF80BD00BF7A
:10D0A000A60A002080B582B000AF78607B68002BB4
:10D0B0000FD07868FFF72CFF0346002B09D0796862
:10D0C0000648FFF76DFF064B01221A707868FFF7DC
:10D0D00069FE00BF0837BD4680BD00BF780A00204A
:10D0E000A60A002080B500AF034B00221A70FFF79C
:10D0F000C7FE00BF80BD00BFA60A002080B483B079
:10D1000000AF7860396005E07B6801337B603B6885
:10D1100001333B607B6893F90030002B0CD03B68F7
:10D1200093F90030002B07D07B6893F900203B680F
:10D1300093F900309A42E7D07B6893F90030002BD6
:10D1400006D13B6893F90030002B01D1012300E0A8
:10D150000023DBB218460C37BD465DF8047B7047F0
:10D1600080B485B000AFF860B9601346FB71FB79FD
:10D17000632B12D9FB79284AA2FB03235B09DBB29C
:10D180003033D9B2BB681B785A1CD0B2BA68107061
:10D190001A46FB6813444AB21A70FB79092B1CD952
:10D1A000FB791E4AA2FB0323DB08DAB21B4BA3FB6D
:10D1B0000213D9080B469B000B445B00D31ADBB269
:10D1C0003033D9B2BB681B785A1CD0B2BA68107021
:10D1D0001A46FB6813444AB21A70FA790F4BA3FB44
:10D1E0000213D9080B469B000B445B00D31ADBB239
:10D1F0003033D9B2BB681B785A1CD0B2BA681070F1
:10D200001A46FB6813444AB21A7000BF1437BD4671
:10D210005DF8047B704700BF1F85EB51CDCCCCCCB3
:10D2200080B487B000AFB9607A603B600346FB739F
:10D23000FB7B002B01D10123FB73FB7B642B01D90A
:10D240006423FB73FB7B013B274A82FB0312921092
:10D25000DB17D31AFB75FB7B5A1E234B83FB021390
:10D260009910D317C91A0B469B000B445B00D11AC7
:10D270000B46BB75FB7D03F00103DBB2002B04D032
:10D28000BB7DC3F10903DBB200E0BB7D7B75FB7D99
:10D29000C3F109033B757B7D9BB21A4652001344D0
:10D2A0009B009BB204339AB2BB681A803B7D9BB251
:10D2B0001A46520013449B009BB212339AB27B6809
:10D2C0001A80BB681B880B339AB23B681A807B6854
:10D2D0001B880B339AB23B6A1A8000BF1C37BD46CD
:10D2E0005DF8047B704700BF6766666690B589B0DD
:10D2F00002AF0346B9607A60FB7307F1120407F1CD
:10D30000140207F11601F87B07F11003009323467E
:10D31000FFF786FFFB8A06339AB2BB681A80BB8A86
:10D3200006339AB27B681A8000BF1C37BD4690BD99
:10D3300080B485B000AF0346FB71FB79013B1D4A09
:10D3400082FB03129210DB17D31AFB73FB795A1E70
:10D35000184B83FB02139910D317C91A0B469B0075
:10D360000B445B00D11A0B46BB73FB7B03F001033C
:10D37000DBB2002B04D0BB7BC3F10903DBB200E0BE
:10D38000BB7B7B73FB7BC3F109033B737A7B3B7BEA
:10D390001344DBB203F00103002B02D142F2041369
:10D3A00001E041F2820318461437BD465DF8047B64
:10D3B000704700BF6766666690B587B002AF0346E8
:10D3C000FB7107F10A0407F10C0207F10E01F8796D
:10D3D00007F1080300932346FFF722FFFB897A89B0
:10D3E00011461846FDF7A8FBBB893A891146184635
:10D3F000FDF7DEFBFB791846FFF79AFF0346184658
:10D40000FDF722FCFB79012B21D1FB89013398B276
:10D41000BB8901339BB24FF4FC621946FDF76EFBEA
:10D42000FB89023398B2BB8901339BB24FF4FC6293
:10D430001946FDF763FBFB89013398B2BB890233C0
:10D440009BB24FF4FC621946FDF758FB23E0FB79D1
:10D45000642B20D17B89013B98B2BB8901339BB2FD
:10D460004FF6E0721946FDF749FB7B89023B98B203
:10D47000BB8901339BB24FF6E0721946FDF73EFBC4
:10D480007B89013B98B2BB8902339BB24FF6E072B5
:10D490001946FDF733FB00BF1437BD4690BD90B56C
:10D4A00089B002AF78600B467B807B681B7807F100
:10D4B0000E0207F110011846FFF718FF7B685B7832
:10D4C00007F10A0207F10C011846FFF70FFF3B8A2C
:10D4D000013B98B2F989BB89013B9AB27C897B8870
:10D4E00000932346FDF704FC3B8A013398B2F98987
:10D4F000BB8901339AB27C897B8800932346FDF770
:10D50000F7FB0123FB7529E0FB7DB9893A8A8A1A6A
:10D5100092B212B202FB03F39B109AB23B8A1344FD
:10D52000BB82FB7D7989FA898A1A92B212B202FB18
:10D5300003F39B109AB2FB8913447B82BB8A023BA4
:10D5400098B2BB8A02339AB27B8A798A4FF6E0742A
:10D550000094FDF7CDFBFB7D0133FB75FB7D032BB9
:10D56000D2D900BF00BF1C37BD4690BD90B587B073
:10D5700002AF78600B467B807B681B7807F10C025A
:10D5800007F10E011846FFF7B1FE7B685B7807F1E3
:10D59000080207F10A011846FFF7A8FEF889B989C1
:10D5A0007A893C897B8800932346FDF7A1FBF889A3
:10D5B000B9894FF4FC630222FDF730FDF889B9897F
:10D5C0007B880222FDF725FC7B8939897A881846F9
:10D5D000FDF794FA00BF1437BD4690BD80B582B008
:10D5E00000AF0023FB710BE0FB795B00114A134491
:10D5F0004FF620511846FFF752FFFB790133FB71BC
:10D60000FB79072BF0D90023BB710BE0BB795B00E2
:10D61000094A13444FF4FC611846FFF7A7FFBB7992
:10D620000133BB71BB79072BF0D900BF00BF0837AE
:10D63000BD4680BD1C5801082C58010880B584B037
:10D6400000AF0346FB710023FB730BE0FB7B5B0029
:10D65000114A13444FF620511846FFF720FFFB7B79
:10D660000133FB73FB7B072BF0D90023BB730BE06B
:10D67000BB7B5B00094A13444FF4FC611846FFF77B
:10D6800075FFBB7B0133BB73BB7B072BF0D900BF9E
:10D6900000BF1037BD4680BD1C5801082C5801083A
:10D6A00080B584B000AF0346FB71FB79002B1CD022
:10D6B000FB79642B19D807F10C0207F10E01FB79F5
:10D6C0001846FFF713FEFB89023B98B2B98940F276
:10D6D000FF730222FDF7A2FCFB89023B9BB2B989D2
:10D6E0004FF6FF721846FDF709FA00BF1037BD4626
:10D6F00080BD80B584B000AF0346FB71FB79002B81
:10D700001CD0FB79642B19D807F10C0207F10E012C
:10D71000FB791846FFF7EAFDFB89023398B2B98915
:10D720004FF6E0730222FDF779FCFB8902339BB2CE
:10D73000B9894FF478421846FDF7E0F900BF103779
:10D74000BD4680BD80B582B000AF0346FB710B467D
:10D75000BB7113467B71FB79002B1AD0FB79642BCC
:10D7600017D8FB791846FFF727FEFB791846FFF715
:10D7700065FFBA79FB799A420BD17B79002B04D0F3
:10D78000BB791846FFF7B5FF03E0BB791846FFF7F2
:10D7900087FF00BF0837BD4680BD80B584B000AFAD
:10D7A00003460A46FB711346BB717C210320FDF73B
:10D7B000C3F98A211120FDF7FBF944F20820FDF797
:10D7C00043FA0123FB7306E0FB7B1846FFF7F4FDE9
:10D7D000FB7B0133FB73FB7B642BF5D9FFF7FEFE6C
:10D7E000FB79002B03D0FB791846FFF759FFBB7973
:10D7F000002B03D0BB791846FFF77BFF00BF103723
:10D80000BD4680BD80B584B000AF78607F21002028
:10D81000FDF792F910210020FDF7CAF90020FDF76D
:10D8200013FA7B685B78002B07D14FF6E073042274
:10D830000421454804F002FB4EE07B685B78022B34
:10D840001FD17B68DB79012B07D140F2FF730422E3
:10D8500004213E4804F0F2FA3EE07B68DB79022BBB
:10D8600007D14FF6E07304220421394804F0E6FAA8
:10D8700032E04FF6FF7304220421364804F0DEFA4A
:10D880002AE07B685B78032B07D14FF478430422AE
:10D890000421314804F0D2FA1EE07B685B79012B49
:10D8A00007D140F2FF73042204212C4804F0C6FA89
:10D8B00012E07B685B79022B07D14FF6E0730422FC
:10D8C0000421274804F0BAFA06E04FF6FF73042259
:10D8D0000421244804F0B2FA4CF2186304225421C3
:10D8E000214804F0ABFA7B689B79002B14D07B684D
:10D8F0009B79062B10D87B689B793033DBB25BB207
:10D900003B7300237B7307F10C004FF4FC6304228C
:10D910006C2104F093FA06E048F2104304226C21D3
:10D92000124804F08BFA7F210020FDF705F9102141
:10D930001020FDF73DF944F20820FDF785F900BFFE
:10D940001037BD4680BD00BF3C5801084C58010847
:10D950005C5801086C5801087C5801088858010877
:10D960009058010898580108A0580108A8580108C3
:10D9700080B590B000AF78607F210020FDF7DCF823
:10D980009F218B20FDF714F90020FDF75DF97F2121
:10D990000020FDF7D1F88B218B20FDF709F944F227
:10D9A0000820FDF751F9AD4A07F1340392E803006E
:10D9B00018600433197007F1390300221A60C3F8A4
:10D9C0000320042387F833307B68DB78002B33D1C6
:10D9D00097F833305A1CD2B287F8332040333B4497
:10D9E000532203F80C2C97F833305A1CD2B287F824
:10D9F000332040333B44542203F80C2C97F8333047
:10DA00005A1CD2B287F8332040333B44522203F8E9
:10DA10000C2C97F833305A1CD2B287F8332040339D
:10DA20003B44542203F80C2C97F8333040333B44EA
:10DA3000002203F80C2C0FE07B68DA7807F1330141
:10DA400007F134031846FFF78BFB97F83330403368
:10DA50003B44002203F80C2C07F1340040F2FF7322
:10DA60008E22042104F0EAF97D4A07F1240392E8AA
:10DA7000030018600433197007F1290300221A60AB
:10DA8000C3F80320042387F823307B681B79002B1D
:10DA900033D197F823305A1CD2B287F82320403371
:10DAA0003B44532203F81C2C97F823305A1CD2B263
:10DAB00087F8232040333B44542203F81C2C97F86A
:10DAC00023305A1CD2B287F8232040333B445222E1
:10DAD00003F81C2C97F823305A1CD2B287F8232065
