:020000040800F2
:100000000000012019030008210300082B03000849
:10001000510300085B030008810300080000000092
:10002000000000000000000000000000A70300081E
:10003000B103000800000000BB030008C50300086E
:10004000E1030008E1030008E1030008E103000800
:10005000E1030008E1030008E1030008E1030008F0
:10006000E1030008E1030008E1030008E1030008E0
:10007000E1030008E1030008E1030008E1030008D0
:10008000E1030008E1030008E103000800000000AC
:10009000000000000000000000000000E103000874
:1000A000E1030008E1030008E1030008E1030008A0
:1000B000E1030008E1030008E1030008E103000890
:1000C000E1030008E1030008E1030008E103000880
:1000D000E1030008E1030008E1030008000000005C
:1000E000E1030008E1030008E1030008000000004C
:1000F000000000000000000000000000E103000814
:1001000000000000E1030008E1030008E10300082B
:1001100000000000000000000000000000000000DF
:10012000E1030008E1030008E1030008E10300081F
:10013000E1030008000000000000000000000000D3
:10014000000000000000000000000000E1030008C3
:10015000E1030008E1030008E1030008E1030008EF
:10016000E1030008E10300080000000000000000B7
:10017000000000000000000000000000000000007F
:1001800000000000E1030008000000000000000083
:10019000E103000880B58EB000AF00F0DDF94C4BF4
:1001A0004C4A1A604C4B4B4A1A604C4B3B634C4BCD
:1001B000FB624C4BBB62FB6A7B6207E03A6B131D30
:1001C0003B637B6A191D796212681A60BA6A7B6A9E
:1001D0009A42F3D800BF3E4B1B68434A934205D175
:1001E0003D4B1B68414A934200D100E0FEE7404B83
:1001F000384A1A603F4B374A1A603F4B3B623F4BCD
:10020000FB613B6ABB6104E0BB691A1DBA61002255
:100210001A60FA69BB699A42F6D800BF344B1B6872
:10022000002B04D1334B1B68002B00D100E0FEE70C
:1002300000F0A8F93A463B1D1146184600F078F93F
:100240002F4A304BD31A9B10FB600023BB6007E0A2
:100250002C4ABB6852F823309847BB680133BB6017
:10026000FA68BB689A42F3DC274A284BD31A9B10E2
:10027000FB600023BB6007E0244ABB6852F82330D0
:100280009847BB680133BB60FA68BB689A42F3DCED
:1002900000BF7B683A681146184600F035F978636C
:1002A0001B4A1C4BD31A9B107B617B693B6108E0A6
:1002B0003B69013B174A52F8233098473B69013BA1
:1002C0003B613B69002BF3DC00BF786B00F02AF93F
:1002D00000000020BABADECA100000200C07000897
:1002E0000000002014000020785634123254769812
:1002F000140000201C00002014000020200000201A
:10030000140400081404000814040008140400086D
:10031000140400081404000880B500AFFFF73AFF8A
:1003200080B400AF00BE00BFFDE71EF0040F0CBF9D
:10033000EFF30880EFF309807146264A104700BFAB
:1003400080B483B000AF7860396000BE00BFFDE7C5
:1003500080B400AF00BE00BFFDE71EF0040F0CBF6D
:10036000EFF30880EFF3098071461B4A104700BF86
:1003700080B483B000AF7860396000BE00BFFDE795
:100380001EF0040F0CBFEFF30880EFF309807146F5
:10039000124A104700BF80B483B000AF7860396064
:1003A00000BE00BFFDE780B400AF00BE00BFFDE7A8
:1003B00080B400AF00BE00BFFDE780B400AF00BE58
:1003C00000BFFDE780B400AF00BFBD465DF8047B11
:1003D00070470000410300087103000897030008FC
:0A03E00080B400AF00BE00BFFDE7CF
:1003EC000C07000800000020140000200C07000877
:1003FC00000000100000001014000020200000205D
:08040C000000001000000010C8
:1004140080B483B000AF78607B681B6818460C37E3
:10042400BD465DF8047B704780B584B000AF184BBF
:10043400FB601848FFF7ECFFB8601748FFF7E8FFC8
:100444007860FB681B68154A934201D000231BE0C7
:10045400BB68B3F1005F03D3BB68114A934201D96F
:10046400002311E07B680F4A934203D37B68084A58
:10047400934201D9002307E07B6803F00103002BBA
:1004840001D1002300E0012318461037BD4680BD8A
:10049400F0FF03080080000804800008314D504735
:1004A400000001200880000880B582B000AF114828
:1004B400FFF7AEFF78601048FFF7AAFF386072B606
:1004C4000E4B00221A600D4B00225A600B4B002287
:1004D4009A600B4B074A9A60BFF34F8F00BFBFF37C
:1004E4006F8F00BF7B683A6883F30888104700BFAA
:1004F400FDE700BF008000080480000810E000E071
:1005040000ED00E080B500AFFFF78EFF0346002B3F
:1005140001D100BFFDE7FFF7C7FF0023184680BDE8
:1005240080B483B000AF786000BFFDE780B483B0CF
:1005340000AF786039607B6801221A603B68044A26
:100544001A6000BF0C37BD465DF8047B704700BFDE
:100554000400002080B500AF00F018F8064B074AED
:100564009A60054BD3F88830034A43F47003C2F809
:10057400883000BF80BD00BF00ED00E0000000082F
:1005840080B500AF00F038F800BF80BD80B400AF84
:10059400164BD3F88830154A43F47003C2F88830F8
:1005A400134B1B68124A43F001031360104B0022E3
:1005B4009A600F4B1B680E4A23F0847323F4803334
:1005C40013600B4B0B4A5A60094B1B68084A23F40F
:1005D40080231360064B0022DA60044B4FF0006264
:1005E4009A6000BFBD465DF8047B704700ED00E0F3
:1005F400003802401030002480B487B000AF0023DC
:100604003B6100237B610223FB600023BB60022368
:100614007B60344B9B6803F00C033B613B69082B04
:1006240011D03B69082B44D83B69002B03D03B69AC
:10063400042B04D03DE02C4B2C4A1A603DE02A4B9D
:100644002B4A1A6039E0274B5B689B0D03F00103CA
:10065400BB60244B5B6803F03F037B60BB68002BEB
:100664000CD0234A7B68B2FBF3F31E4A526892090A
:10067400C2F3080202FB03F37B610BE01B4A7B68B5
:10068400B2FBF3F3174A52689209C2F3080202FB61
:1006940003F37B61134B5B681B0C03F0030301330F
:1006A4005B00FB607A69FB68B2FBF3F30E4A1360EC
:1006B40003E00D4B0D4A1A6000BF0A4B9B681B09EF
:1006C40003F00F030B4AD35C3B61074B1A683B6989
:1006D40022FA03F3044A136000BF1C37BD465DF8D9
:1006E400047B7047003802400C0000200024F40012
:1006F40040787D01FC0600080000000000000000B6
:080704000102030406070809C5
:10070C007856341218000020000000000024F40079
:04071C003254769845
:040000050800019559
:00000001FF
